:020000040000FA
:100000008031D828803400347E14803120007F086D
:10001000B5008D31822580312000921CAB28013043
:10002000C0070030C13D0030C23D0030C33D00304C
:10003000F3000030F2000030F1006430F0004308BB
:10004000F7004208F6004108F5004008F4008B3143
:10005000F92380317308720471047004031D42286F
:1000600000302000C3000030C2000030C10000306A
:10007000C00001302100A0070030A13D0030A23DAA
:100080000030A33D200092105108031DAB28893198
:100090002A218031003A0319AB2889314821803167
:1000A00071082000B7007008B6005208031D8128AF
:1000B00007308931CA21803120003708A100360875
:1000C000A0005430B0003008A2004830B100310820
:1000D000A300B430B2003208A400C830B300330823
:1000E000A500C930B4003408A60087314627803106
:1000F000200037082100AD00200036082100AC00A8
:10010000A92803308931CA21803120003708A10095
:100110003608A0005530B0003008A2005C30B100B5
:100120003108A300B830B2003208A400CA30B300CE
:100130003308A500CB30B4003408A6008731462729
:100140008031200037082100AF0020003608210050
:10015000AE002000D20989315A218031003A0319BA
:10016000C7282100300831060319C728310830029A
:100170000318C12801302000B00030082100B0076A
:10018000C3280130B00230088931382180310B1C7E
:10019000D328270013081908031D191ED32820008F
:1001A0000E082700191220003508FF007E100900F4
:1001B0008031DA28803102208031D600803103205E
:1001C0008031D7002100893112218031EB00893143
:1001D00013218031EC00403084000030850016305F
:1001E000893124218031A0308400003085002C30FA
:1001F0008931242180312030840001308500503045
:10020000893124218031A0308400013085002830DC
:100210008931242180312030840002308500403033
:10022000893124217E102000813116292300D60136
:100230002030C8004808E100DF010030DC00003059
:10024000DB000030DA000030D9008931182181311B
:100250008C313B24813110302000B8000030B900CF
:100260008A318122813102302000B8000030B9008B
:100270008A31C222813102302300C80048082000A0
:10028000B80000308A31142281312000B8010230D8
:100290008931FB2181312000B801B80A023089314F
:1002A000B62181312000B80100308931E22181314D
:1002B00001302000B8000030B9008A31A02281311D
:1002C0008931642181312300E001FF30C8004808F2
:1002D0002100B000230060088B31482381312300C6
:1002E0006008C80048082100B100B201230060087E
:1002F0008C3180248131FA302000B8000F30B900F1
:10030000BC30BA000030BB000230BC000030BD0081
:100310008B3180238131DA302000B8000F30B900F2
:10032000C030BA000030BB000230BC000030BD005D
:100330008B318023813121003C0A3F3003193D0677
:10034000031DE0293E0A3F3003193F06031DE02943
:10035000400A3F3003194106031DE029420A3F309D
:1003600003194306031DE029C601C701C401C501E5
:100370000030BF000030BE000030BD000030BC00C7
:10038000FA30CD000F30CE00BC30CF000030D000AE
:100390000230D1000030D2008E3174268131DA3043
:1003A0002100CD000F30CE00BC30CF000030D00097
:1003B0000230D1000030D2008E3174268131632AA0
:1003C00021003C082300C80021003D082300C9008B
:1003D00021003E082300CA0021003F082300CB0073
:1003E0001030CB36CA0CC90CC80C890BF129480A4D
:1003F0003F30031949064A044B04031D012A21001A
:10040000312A210040082300C800210041082300B0
:10041000C900210042082300CA002100430823002C
:10042000CB001030CB36CA0CC90CC80C890B122A71
:10043000480A3F30031949064A044B0403193D2A70
:10044000210043083F02031D2F2A42083E02031DDC
:100450002F2A41083D02031D2F2A40083C020318A1
:100460003A2A4308BF004208BE004108BD004008C8
:10047000BC00412AFF3023003E2AFF30C800480854
:10048000DF0021003C082300C80021003D082300B4
:10049000C90021003E082300CA0021003F082300B4
:1004A000CB001030CB36CA0CC90CC80C890B522AB1
:1004B00049082100C700230048082100C6003D0864
:1004C000C5003C08C4008B176400023021003306CD
:1004D0000319F02B122C23006108033E8600013023
:1004E00087000108C800C90148082100D600230080
:1004F00049082100D7001030D8000030D9008931D8
:1005000093218131102C23006108033E86000130C5
:1005100087000108C800C90148082100D60023004F
:1005200049082100D7007130D8000030D900893146
:1005300093218131102C23006108033E8600013095
:1005400087000108C800C90148082100D60023001F
:1005500049082100D70023006008CA00CB014A08DF
:100560002100D80023004B082100D90089319321B4
:100570008131102C2000D101D10A02308A312D2284
:10058000813120003C082300CF0020003B082300DD
:10059000CE002000D10123006108033E8600013017
:1005A00087000108C800C90148082100D6002300BF
:1005B00049082100D70023004F082100D90023005B
:1005C0004E082100D800893193218131102C23005D
:1005D0006108033E8600013087000108C800C90198
:1005E00048082100D600230049082100D700290827
:1005F000D9002808D800893193218131102C22009C
:10060000240821006B072300D00021006C08031888
:100610006C0A2300D100220025082300C800C9016C
:100620004808DD004908DE0000305E022130031971
:100630005D020318102C51082000B9002300500857
:100640002000B8002530BA000130BB0023005E084E
:10065000C9005D08C800C936C80C48082000BC00A5
:10066000230049082000BD008B31802381312430D4
:100670002000BD000130BE0023005D08013EC8001F
:1006800048082000BF0023006108033E86000130B7
:10069000870001088D31EE258131102C22002508BC
:1006A0002300C800C9014808C900C8012200240865
:1006B00023004807CC0049080318490ACD004C081C
:1006C000C8004808E00060088C3180248131230094
:1006D0006108033E8600013087000108C800C90197
:1006E00048082100D600230049082100D700230034
:1006F0006008CA00CB014A082100D80023004B083B
:100700002100D900893193218131102C2200240845
:1007100021006B072300D20021006C0803186C0A2B
:100720002300D30021002408FF3E2300D400FF3023
:100730002100253D2300D50053082100CE002300D1
:1007400052082100CD002530CF000130D000230019
:100750005508C9005408C800C936C80C480821000B
:10076000D100230049082100D2008E317426813146
:10077000230056080319D72B0230C800480822006E
:10078000A50024302000BD000130BE00023023004F
:10079000C80048082000BF0023006108033E86000F
:1007A0000130870001088D31EE258131102C2200A7
:1007B000A501A50A24302000BD000130BE00023092
:1007C0002300C80048082000BF0023006108033E42
:1007D00086000130870001088D31EE258131102C13
:1007E00023006108033E8600013087000108013ABA
:1007F00003196B2A033A0319832A013A03199B2A26
:10080000073A0319BA2A013A0319E72A033A0319E6
:10081000FF2A853A03194E2B053A0319862B102C13
:100820002100B30120000E1AFF2C210048080319F3
:100830004A0803191E2CAA01AB01282C49080319E8
:10084000282C4B080319282C0130AA000030AB00DB
:1008500001302D02283003192C02031C022D013017
:100860002F02283003192E02031C022D23005C08DE
:100870005B045A045904031D6D2C21002308230036
:10088000DC00210022082300DB00210021082300D6
:10089000DA00210020082300D900DB302100CD0040
:1008A0000F30CE00C630CF000030D0000130D10074
:1008B0000030D2008E3174268131FB302100CD0012
:1008C0000F30CE00C630CF000030D0000130D10054
:1008D0000030D2008E31742681312100230820009F
:1008E000BB00210022082000BA00210021082000BE
:1008F000B900210020082000B80023005C08200077
:10090000BF0023005B082000BE0023005A0820001F
:10091000BD00230059082000BC008631AA26813181
:1009200020003B08031D9E2C3A08031D9E2C39080D
:10093000031D9E2C64303802031C022D23005F0827
:100940000319A42CDA30A52CFA30D7000F30D800C8
:10095000DF092100440A3F3003194506031DD72C47
:100960000130C6070030C73DDB30CD000F30CE0070
:10097000C630CF000030D0000130D1000030D200AE
:100980008E3174268131FB302100CD000F30CE0036
:10099000C630CF000030D0000130D1000030D2008E
:1009A0008E31742681312100C401C501DB2C013058
:1009B000C4070030C53D230058082100CE002300A5
:1009C00057082100CD00C430CF000030D0000130E6
:1009D000D1000030D2008E317426813121002308ED
:1009E0002300DC00210022082300DB002100210875
:1009F0002300DA00210020082300D900022D210065
:100A0000AA01AB0121002B082906031D092D2A0884
:100A1000280603191B2D2A032B04031D132D8931CE
:100A200040218131162D89311821813121002B0877
:100A3000A9002A08A80032080319642A30083106E0
:100A4000031D642A05302300CA000F30C900F430AA
:100A5000C800C80B292DC90B292DCA0B292D21002F
:100A600027082000B900210026082000B8008A319C
:100A7000642281312100B201642A2000A2002030CA
:100A8000FA007A08A30021003308031D7B2D200003
:100A900046084704031D5E2D55302206031D5E2DBA
:100AA0002208FA004608203E8600013087007A08B6
:100AB00081000130C6070030C73D080046034704E7
:100AC000031D772DAA302206031D772D2208FA0078
:100AD0004608203E8600013087007A0881000130F8
:100AE000C6070030C73D2100B301B30A080020004B
:100AF000C601C701080021003303031D08002000C0
:100B00002208FA004608203E8600013087007A0855
:100B100081000130C6070030C73D00304702053074
:100B200003194602031C08002308023E8600013018
:100B300087000108023EFA00003003180130FB0074
:100B40007B08803AFC0080307C02031DA92D2930EF
:100B50007A02031CB02D2100B3012000C601C70199
:100B600020002308023E8600013087000108023E73
:100B7000FA00003003180130FB0047087B06031D14
:100B8000C32D46087A06031D08002308023E86008E
:100B9000013087000108FE3EF000FF3003180030EE
:100BA000F1002308023E8A31EA22853171082000D3
:100BB000A1007008A0002308023E860001308700D3
:100BC0000108203E860001308700403FFA00413F87
:100BD000FB0021087B06031DEF2D20087A06031D6C
:100BE000082E0230FA007A082100B3002000230802
:100BF000023E8600013087000108FC3E2100A4006F
:100C0000FF3003180030A5002000C601C70108000E
:100C10002100B3012000C601C70108002100DE0049
:100C200089311E218631200039082100DD00200095
:100C300038082100DC00A8305E02031C222EDA01F5
:100C4000DB01A52E5E08031D292E5D08DB005C0874
:100C5000A42E5E08D400D501D409D509D40A0319FD
:100C6000D50A5408A73EDF000030553DE000E10101
:100C7000E01BE1036108E2005C082000B8002100ED
:100C80005D082000B900BA01BB0121006208200004
:100C9000BF00210061082000BE0021006008200084
:100CA000BD0021005F082000BC008B31B8238631D5
:100CB00020003B082100E20020003A082100E1006A
:100CC000200039082100E000200038082100DF0062
:100CD0000030D9000030D8000030D700A730D6004F
:100CE00059082000BB00210058082000BA0021004C
:100CF00057082000B900210056082000B800210044
:100D000062082000BF00210061082000BE00210011
:100D100060082000BD0021005F082000BC008D316C
:100D20001D2520003B082100E20020003A08210098
:100D3000E100200039082100E000200038082100EF
:100D4000DF006008DB005F08DA005B08D3005A08A8
:100D5000D200080000302100D7000030D60000305B
:100D6000D5000030D40020003F083B02031DC22EF6
:100D70003E083A02031DC22E3D083902031DC22E51
:100D80003C083802031CFB2E38082100CC00200050
:100D900039082100CD0020003A082100CE002000B3
:100DA0003B082100CF0020003C092100D00020009A
:100DB0003D092100D10020003E092100D200200081
:100DC0003F092100D300D00A0319D10A0319D20A1E
:100DD0000319D30A5008CC075108CD3D5208CE3D27
:100DE0005308CF3D4F08D7004E08D6004D08D50018
:100DF0004C08D400362F200038082100CC002000F9
:100E000039082100CD0020003A082100CE00200042
:100E10003B082100CF0020003C092100D000200029
:100E20003D092100D10020003E092100D200200010
:100E30003F092100D300D00A0319D10A0319D20AAD
:100E40000319D30A5008CC075108CD3D5208CE3DB6
:100E50005308CF3DFF304C07D400FF304D3DD50047
:100E6000FF304E3DD600FF304F3DD70057082000E1
:100E7000BB00210056082000BA00210055082000C0
:100E8000B900210054082000B80008002000220802
:100E90008600870101352307A70027088600013057
:100EA0008700403FA800413FA9002808AA00290860
:100EB000AB00AC01AD012408860087012A0881023D
:100EC00041312B08813B41312C08813B41312D08B8
:100ED000813B7D3122088600870101352307A70069
:100EE00027088600013087002008C03F2108C13F45
:100EF0002008A7002108A800A901AA01240886004B
:100F000087012708810741312808813D413129089F
:100F1000813D41312A08813D0130A7002208860029
:100F20008701270881072208860087010A3001020D
:100F3000031C9E2F22088600870181010030F300E8
:100F40000030F2000030F1000A30F0002408860082
:100F50008701403FF400413FF500423FF600433F28
:100F6000F7008C31CB24873171082000AF00700866
:100F7000AE0002302F02C83003192E02031CC62F08
:100F80002508860087018101810A080001302F02AF
:100F9000753003192E020318D32F26088600870107
:100FA0008101810A08002608860087018101250841
:100FB0008600870181010800F10020004908803A7D
:100FC000F0004B08803A7002031DE82F4A084802DF
:100FD0000318FD2F20004808A03E8600013087003E
:100FE0000108F00071088600870170088100013057
:100FF000C8070030C93D0130080000300800080073
:10100000FF3FFF3FFF3FFF3FFF3FFF3FFF3FFF3FF0
:10101000FF3FFF3FFF3FFF3FFF3FFF3FFF3FFF3FE0
:10102000FF3FFF3FFF3FFF3FFF3FFF3FFF3FFF3FD0
:10103000FF3FFF3FFF3FFF3FFF3FFF3FFF3FFF3FC0
:10122000FF3FFF3F00340F342000CF01CE01080004
:101230002100A801A90122008C1208002000450805
:10124000B9004408B8000800640080010131890B2E
:1012500025290034031021009D1C03140030093D92
:101260000800031021009D1C03140030093D0800F4
:10127000F0002200981218127008990098170800C0
:1012800022008C1601302100A8000030A9000800BF
:10129000033021001C05F2007208F1001B08F00069
:1012A0000800553023009600AA30960095140000DF
:1012B000000008000B1D622920004C0895000B114E
:1012C0000130080000300800C03025009E04CF30F7
:1012D0009E050C309E0403309E0408002000B800D8
:1012E000220098121812200038082200990098173E
:1012F0000800033021001C052000BA003A08B9009C
:1013000021001B082000B80008002000BC003C0899
:10131000BA00BB013A08BD003B08BE003E08B90058
:101320003D08B8000800D8302000BD000030BE00E5
:1013300002302100DA005A082000BF0021005608C0
:101340008D31EE2508008B1323001513200039087A
:10135000230092002000380823009100151615156F
:1013600089315121230015118B1708002000B90085
:101370002A0011172000380C2A00031C1112031830
:101380001116110820003906FC3939062A0091008F
:1013900091170800F2007208F000F00DF00D210026
:1013A0001D087006833970069D001D140630F1007B
:1013B0003030F000F00BDA29F10BDA2900002100BF
:1013C0009D1408002000B90021009E178F309E0553
:1013D0002000380C2100031C1E1103181E151E08C6
:1013E00020003906FC39390621009E000F309F0588
:1013F0009B019C0108002000BA00220098132000E5
:101400003A08B900B90DB90D2200180820003906B4
:10141000F3393906220098002000380C2200031C02
:1014200018100318181408002000BA003808B90072
:10143000B90DB90D2200170820003906F339390615
:1014400022009700170820003A06FC393A062200CD
:1014500097009717171B08002A2A2000BE00893121
:1014600031218A31003A03192F2A20003E088A319F
:1014700048228A31893131218A31003A03193A2AC6
:101480008931792120003908BC003808BB000800E8
:101490002000BA003A08B800B80DB80D21001D08A8
:1014A000200038068339380621009D001D140630BF
:1014B0002000B9003030B800B80B5C2AB90B5C2AA8
:1014C000000021009D14080020003908BB003808E6
:1014D000BA003B0DBB0CBA0C3B0DBB0CBA0C3A0866
:1014E0002C009800200038080339BA000530BA35BE
:1014F000FF3E031D772A3A352C00970019129917E1
:10150000080024009413141315121508F039063836
:101510009500961316101717971217129711171197
:1015200097101710200038352400920021009115E3
:1015300020009111921121009215240095160800A7
:10154000200038033904031DA92A1C08FC3902387D
:10155000AC2A1C08FC3901389C0087309C051C15FE
:1015600038033904031DBB2AFA309B00E830C4005D
:101570000330C500080064309B009030C400013087
:10158000C50008002100951215129511200038039E
:101590003904031DD22A21001508F83903389500B3
:1015A0000630DD2A023038063904031DE22A210004
:1015B0001508F8390638950064302000BA003A085A
:1015C000CC00E72A0730210095042000CC014C080C
:1015D00095000800F500F601F701F801F901790816
:1015E000803AF2007108803A7202031DF92A7008ED
:1015F000780203180E2B78087507F200720886002F
:10160000013087000108F300F4017308F60774083D
:10161000F73D0130F8070030F93DEF2A7708F10077
:101620007608F00008002100CE00CC01CD01CF01EA
:10163000D0015008803A2000BA003908803A3A02B6
:10164000031D252B380821004F0203183F2B2100D2
:101650004F084E072000BA003A0886000130870084
:101660000108BB00BC013B082100CC0720003C085E
:101670002100CD3D0130CF070030D03D192B210096
:101680004D082000B90021004C082000B8000800D7
:101690002100EA006A0886310E268B3121005308AA
:1016A000E9005208E8006A08893185218B31200061
:1016B00039082100E700200038082100E600690809
:1016C0002000B900210068082000B8008A31642297
:1016D0008B3107302100E5001730E4006F30E30064
:1016E000E30B702BE40B702BE50B702B000021003B
:1016F0006608E3006308B000300889316E210800F5
:1017000020003908230092002000380823009100AF
:101710002100CC014C082000BE00BF013D083F0263
:10172000031D942B3C083E020318080023001513E8
:1017300015140000000021004C082000BE00BF016D
:10174000BE35BF0D3E083A0786003F083B3D870087
:1017500023001308C03F1408C13F01309107003037
:10176000923D01302000BE003E082100CC078A2BAC
:1017700000302100CF000030CE000030CD0000301E
:10178000CC002000381CD32B3C082100CC072000C3
:101790003D082100CD3D20003E082100CE3D200027
:1017A0003F082100CF3D01302000BC35BD0DBE0DEE
:1017B000BF0D890BD42B0130BB36BA0CB90CB80C59
:1017C000890BDC2B3B083A0439043804031DC12B78
:1017D00021004F082000BB0021004E082000BA0065
:1017E00021004D082000B90021004C082000B8005D
:1017F000080073087204710470040319322CF90193
:10180000F90AF31B0F2C0130F035F10DF20DF30D39
:10181000890B042C0130F8007808F907012C7308B3
:101820007702031D1D2C72087602031D1D2C710802
:101830007502031D1D2C70087402031C272C7008F0
:10184000F4027108F53B7208F63B7308F73B013070
:10185000F336F20CF10CF00C890B282C0130F90254
:10186000031D0F2C7708F3007608F2007508F100CD
:101870007408F00008002100991378309904FC30B6
:1018800099051A1C412C0C148C140C1122000C11FB
:1018900021000C168C1223008C010C150C16240050
:1018A0008C0121000E148E140E118E150E168E1240
:1018B00023008E018E1524008E01270091019201D4
:1018C0009301970198011716181699018B158B161D
:1018D000773028009700FA309600210092140B17F9
:1018E0003C000F101030A0001130A10010303D005E
:1018F000A0001130A1000E30A5003C000F1408001C
:101900002100E600660886310E268C31210053083E
:10191000E8005208E7006608893185218C312000F3
:1019200039082100EA00200038082100E9003008C9
:10193000E300E4016A086402031DA02C6908630245
:10194000031CC02C68082000B90021006708200093
:10195000B8008A3164228C3107302100E50017304D
:10196000E4006F30E300E30BB32CE40BB32CE50B86
:10197000B32C000021006908E3006308B1000800EF
:101980006908E3006308B100B201B20A6808A70061
:101990006708A60008000030FC000030FB000030A3
:1019A000FA000030F900730872047104700403191E
:1019B000142DFD01FD0AF31BE92C0130F035F10D6A
:1019C000F20DF30D890BDE2C0130F8007808FD07CD
:1019D000DB2C0130F935FA0DFB0DFC0D890BEA2CDF
:1019E00073087702031DFE2C72087602031DFE2C7D
:1019F00071087502031DFE2C70087402031C092D6A
:101A00007008F4027108F53B7208F63B7308F73B67
:101A100079140130F336F20CF10CF00C890B0A2D1D
:101A20000130FD02031DE92C7C08F3007B08F20065
:101A30007A08F1007908F000080000302100D00099
:101A40000030CF000030CE000030CD0020003B0839
:101A50003A04390438040319712D2100D101D10A47
:101A60002000BB1B412D01302000B835B90DBA0D47
:101A7000BB0D890B342D01302100CC004C08D1075F
:101A8000302D01302100CD35CE0DCF0DD00D890B7D
:101A9000422D20003B083F02031D582D3A083E020C
:101AA000031D582D39083D02031D582D38083C02EE
:101AB000031C642D3808BC023908BD3B3A08BE3B04
:101AC0003B08BF3B21004D1401302000BB36BA0C4F
:101AD000B90CB80C890B652D01302100D102031D12
:101AE000412D210050082000BB0021004F0820009C
:101AF000BA0021004E082000B90021004D08200046
:101B0000B80008002000911DE22D2400141E8F2D26
:101B100020004E080319E02DCF01CF0AE02D151F3C
:101B2000922D1513141DB72D941A9B2D1108FD002D
:101B30007D082000A40020004F080319A22DCF012A
:101B40005308B42D53308731DC278D31003A031907
:101B5000B12D20005308240091002000CE01CE0AB0
:101B6000DE2D2000CE01F53024009100DE2D941AE8
:101B7000C42D1108FD007D082000A40024001516C6
:101B80002000D001D00AE02D951FCE2D1108FD00B8
:101B90007D082000A40024009513DE2D20005008AD
:101BA0000319D92DD001240011088731FF278D3169
:101BB000DE2D2400110885313D258D3124001516B8
:101BC00020009111921D080024001108FD007D08DD
:101BD0002000A40092112400151608002100D20054
:101BE000A030D1005108D50020003F08043E21005C
:101BF000D300003003180130D4000130540200300B
:101C000003195302031808005508860001308700A5
:101C10005530C03FAA30C13F20003F08043E21009C
:101C2000D1005508023E860001308700510881002E
:101C30005208D1005508033E860001308700510844
:101C4000810020003F080319362E3D0884003E081D
:101C500085003F082100D1000430A03E86000130FD
:101C6000870012001E002100D10B312E21005508E3
:101C7000023E8600013087000108FE3E2000B800C9
:101C8000FF3003180030B90021005508023E8B31A7
:101C900013238D31200039082100D400200038089A
:101CA0002100D3005508023E86000130870001085C
:101CB000A03E8600013087005308C03F5408C13F52
:101CC0002000C801C90121005508023E86000130EC
:101CD00087000108023E2000CA00003003180130CE
:101CE000CB00893114210800E03021004D05D500DA
:101CF0000F304E05D60056082000B90021005508C7
:101D00002000B8002030BA000230BB002030BC00F8
:101D10000030BD008B3180238E312100D701570860
:101D2000D300D40152085402031D982E51085302C7
:101D30000318B62E5708D300D401D335D40D530859
:101D40004F0786005408503D87004D081F3957073C
:101D50000907203E840002308500403F803F413F1C
:101D6000813F0130D3005308D7078F2E560820003B
:101D7000B900210055082000B8008931A3218E3117
:101D80008B13230015132100560823009200210015
:101D90005508230091001512951615152100D7013D
:101DA0001F3057020318EF2E5735203E86000230B1
:101DB0008700403F23009300413F94008931512127
:101DC0008E310130230091070030923D0130210017
:101DD000D3005308D7071F305702031CD42E24000A
:101DE0005F082300940024005E08230093009512EE
:101DF0008931512100000000230015118B170800C4
:101E0000FF3FFF3FFF3FFF3FFF3FFF3FFF3FFF3FE2
:101E1000FF3FFF3FFF3FFF3FFF3FFF3FFF3FFF3FD2
:101E2000FF3FFF3FFF3FFF3FFF3FFF3FFF3FFF3FC2
:101E3000FF3FFF3FFF3FFF3FFF3FFF3FFF3FFF3FB2
:101E4000FF3FFF3FFF3FFF3FFF3FFF3FFF3FFF3FA2
:101E5000FF3FFF3FFF3FFF3FFF3FFF3FFF3FFF3F92
:101E6000FF3FFF3FFF3FFF3FFF3FFF3FFF3FFF3F82
:101E7000FF3FFF3FFF3FFF3FFF3FFF3FFF3FFF3F72
:101E8000FF3FFF3FFF3FFF3FFF3FFF3FFF3FFF3F62
:101E9000FF3FFF3FFF3FFF3FFF3FFF3FFF3FFF3F52
:101EA000FF3FFF3FFF3FFF3FFF3FFF3FFF3FFF3F42
:101EB000FF3FFF3FFF3FFF3FFF3FFF3FFF3FFF3F32
:101EC000FF3FFF3FFF3FFF3FFF3FFF3FFF3FFF3F22
:101ED000FF3FFF3FFF3FFF3FFF3FFF3FFF3FFF3F12
:101EE000FF3FFF3FFF3FFF3FFF3FFF3FFF3FFF3F02
:101EF000FF3FFF3FFF3FFF3FFF3FFF3FFF3FFF3FF2
:101F0000FF3FFF3FFF3FFF3FFF3FFF3FFF3FFF3FE1
:101F1000FF3FFF3FFF3FFF3FFF3FFF3FFF3FFF3FD1
:101F2000FF3FFF3FFF3FFF3FFF3FFF3FFF3FFF3FC1
:101F3000FF3FFF3FFF3FFF3FFF3FFF3FFF3FFF3FB1
:101F4000FF3FFF3FFF3FFF3FFF3FFF3FFF3FFF3FA1
:101F5000FF3FFF3FFF3FFF3FFF3FFF3FFF3FFF3F91
:101F6000FF3FFF3FFF3FFF3FFF3FFF3FFF3FFF3F81
:101F7000FF3FFF3FFF3FFF3FFF3FFF3FFF3FFF3F71
:101F8000FF3FFF3FFF3FFF3FFF3FFF3FFF3FFF3F61
:101F9000FF3FFF3FFF3FFF3FFF3FFF3FFF3FFF3F51
:101FA000FF3FFF3FFF3FFF3FFF3FFF3FFF3FFF3F41
:101FB000FF3FFF3FD5010000FF3FFF3FFF3FFF3FD7
:101FC000FF3FFF3FFF3FFF3FFF3FFF3FFF3FFF3F21
:101FD000FF3FFF3FFF3FFF3FFF3FFF3FFF3FFF3F11
:101FE000FF3FFF3FFF3FFF3FFF3FFF3FFF3FFF3F01
:101FF000FF3FFF3FD6010000FF3FFF3FFF3FFF3F96
:020000040001F9
:04000E00D439FF1FC3
:08000000FF3FFF3FFF3FFF3F00
:00000001FF
