:020000040000FA
:100000008031D828803400347E14803120007F086D
:10001000B50087317F2780312000921CAB2801304A
:10002000C0070030C13D0030C23D0030C33D00304C
:10003000F3000030F2000030F1006430F0004308BB
:10004000F7004208F6004108F5004008F4008B3143
:10005000D02380317308720471047004031D422898
:1000600000302000C3000030C2000030C10000306A
:10007000C00001302100A0070030A13D0030A23DAA
:100080000030A33D200092105008031DAB2888319A
:10009000E6208031003A0319AB28893104218031F0
:1000A00071082000B7007008B6005108031D8128B0
:1000B000073089318121803120003708A1003608BE
:1000C000A0005530B0003008A2005C30B10031080B
:1000D000A300B830B2003208A400CB30B30033081C
:1000E000A500C930B4003408A6008E316A268031DC
:1000F000200037082100AF00200036082100AE00A4
:10010000A928033089318121803120003708A100DE
:100110003608A0005430B0003008A2004830B100CA
:100120003108A300B430B2003208A400CA30B300D2
:100130003308A500C830B4003408A6008E316A2602
:100140008031200037082100AD0020003608210052
:10015000AC002000D109893116218031003A031901
:10016000C7282100330832060319C7283208330292
:100170000318C12801302000B00030082100B30767
:10018000C3280130B30233088831F42080310B1CBE
:10019000D328270013081908031D191ED32820008F
:1001A0000E082700191220003508FF007E100900F4
:1001B0008031DA28803102208031D600803103205E
:1001C0008031D70021008831CE208031EE00883187
:1001D000CF208031EF0040308400003085001630A1
:1001E0008831E0208031A0308400003085002C3040
:1001F0008831E0208031203084000130850050308B
:100200008831E0208031A030840001308500283022
:100210008831E02080312030840002308500403079
:100220008831E0207E102000813116292300D20180
:1002300020302100EA006A082300DD00DB010030E5
:10024000D8000030D7000030D6000030D50088310B
:10025000D42081318C311224813110302000B8003B
:100260000030B9008A313622813102302000B800D6
:100270000030B9008A319A22813121008C108931F5
:100280004F21813102302100EA006A082000B800C5
:1002900000308931CA2181312000B8010230893112
:1002A000B12181312000B801B80A02308731EB2733
:1002B00081312000B801003089319821813101302D
:1002C0002000B8000030B9008A31552281318931CF
:1002D000202181312300DC01FF302100EA006A087F
:1002E000B30023005C088B312023813123005C089C
:1002F0002100EA006A08B200B10123005C088C31D9
:1003000054248131FA302000B8000F30B900C030D9
:10031000BA000030BB000230BC000030BD008B31A1
:1003200057238131DA302000B8000F30B900BC30DB
:10033000BA000030BB000230BC000030BD008B3181
:10034000572381312100400A3F3003194106031D24
:10035000E729420A3F3003194306031DE7293C0AF7
:100360003F3003193D06031DE7293E0A3F300319BC
:100370003F06031DE729C401C501C601C7010030BE
:10038000C3000030C2000030C1000030C000FA30AD
:10039000CD000F30CE00C030CF000030D000023092
:1003A000D1000030D2008D31DE258131DA302100DC
:1003B000CD000F30CE00C030CF000030D000023072
:1003C000D1000030D2008D31DE2581314F2A21004D
:1003D0004008EA004108EB004208EC004308ED0049
:1003E0001030ED36EC0CEB0CEA0C890BF1296A0AA3
:1003F0003F3003196B066C046D040319262A3C0870
:10040000EA003D08EB003E08EC003F08ED0010302C
:10041000ED36EC0CEB0CEA0C890B082A6A0A3F302B
:1004200003196B066C046D040319312A3F0843025B
:10043000031D242A3E084202031D242A3D084102CE
:10044000031D242A3C08400203182F2A3F08C3003A
:100450003E08C2003D08C1003C08C000372AFF30FA
:10046000332AFF302100EA006A082300DB00210064
:100470004008EA004108EB004208EC004308ED00A8
:100480001030ED36EC0CEB0CEA0C890B412A6B08B2
:10049000C5006A08C4004108C7004008C6008B17A1
:1004A00064000230210030060319072C2F2C230092
:1004B0005D08033E86000130870001082100EA0044
:1004C000EB016A08D6006B08D7001230D800003064
:1004D000D90089315E2181312D2C23005D08033E36
:1004E00086000130870001082100EA00EB016A085C
:1004F000D6006B08D7007330D8000030D90089319E
:100500005E2181312D2C23005D08033E86000130E1
:10051000870001082100EA00EB016A08D6006B0899
:10052000D70023005C082100EC00ED016C08D80026
:100530006D08D90089315E2181312D2C2000D00138
:10054000D00A02308931FE21813120003C0823008D
:10055000CB0020003B082300CA002000D00123006C
:100560005D08033E86000130870001082100EA0093
:10057000EB016A08D6006B08D70023004B08210066
:10058000D90023004A082100D80089315E21813139
:100590002D2C23005D08033E8600013087000108F2
:1005A0002100EA00EB016A08D6006B08D7002B088F
:1005B000D9002A08D80089315E2181312D2C2200F2
:1005C000240821006E072300CC0021006F080318C7
:1005D0006F0A2300CD00220025082100EA00EB016C
:1005E0006A082300D90021006B082300DA000030DC
:1005F0005A0221300319590203182D2C4D082000EE
:10060000B90023004C082000B8002530BA000130A2
:10061000BB0023005A082100EB00230059082100E9
:10062000EA00EB36EA0C6A082000BC0021006B08E7
:100630002000BD008B315723813124302000BD00C4
:100640000130BE0023005908013E2100EA006A087B
:100650002000BF0023005D08033E860001308700B4
:1006600001088D31552581312D2C23005D08033E75
:1006700086000130870001082100EA00EB016A08CA
:10068000D6006B08D700B330D8002A30D9008931A2
:100690005E2181312D2C23005D08033E8600013050
:1006A000870001082100EA00EB016A08D6006B0808
:1006B000D7002C082E07D8002D082F3DD9008931EE
:1006C0005E2181312D2C220025082100EA00EB015A
:1006D0006A08EB00EA012200240821006A072300CF
:1006E000C80021006B0803186B0A2300C9004808E2
:1006F0002100EA006A082300DC005C088C315424E5
:10070000813123005D08033E860001308700010827
:100710002100EA00EB016A08D6006B08D70023002D
:100720005C082100EC00ED016C08D8006D08D900D0
:1007300089315E2181312D2C2200240821006E0791
:100740002300CE0021006F0803186F0A2300CF009A
:1007500021002408FF3E2300D000FF302100253D6A
:100760002300D1004F082100CE0023004E082100B5
:10077000CD002530CF000130D000230051082100EA
:10078000EB00230050082100EA00EB36EA0C6A086F
:10079000D1006B08D2008D31DE2581312300520853
:1007A0000319EE2B02302100EA006A082200A5009E
:1007B00024302000BD000130BE0002302100EA00DC
:1007C0006A082000BF0023005D08033E8600013058
:1007D000870001088D31552581312D2C2200A5017E
:1007E000A50A24302000BD000130BE0002302100E7
:1007F000EA006A082000BF0023005D08033E86006F
:100800000130870001088D31552581312D2C2300C1
:100810005D08033E8600013087000108013A031994
:10082000572A033A03196D2A013A0319832A073A12
:1008300003199E2A013A0319C92A033A0319DF2A28
:10084000013A0319352B0E3A03194B2B8A3A031937
:10085000632B053A03199C2B2D2C2100B00120009D
:100860000E1A292D21002A032B04031D1A2D4B08D3
:1008700003194A080319412CA801A9016430230077
:100880009A00013021002F02283003192E02031C88
:10089000352D01302D02283003192C02031C352D73
:1008A00023005808570456045504031D872C2100C3
:1008B00023082300D800210022082300D7002100AC
:1008C00021082300D600210020082300D500DB30BA
:1008D0002100CD000F30CE00C430CF000030D0005A
:1008E0000130D1000030D2008D31DE258131FB3066
:1008F0002100CD000F30CE00C430CF000030D0003A
:100900000130D1000030D2008D31DE25813121004F
:1009100023082000BB00210022082000BA0021008B
:1009200021082000B900210020082000B800230081
:1009300058082000BF00230057082000BE002300F5
:1009400056082000BD00230055082000BC00863159
:10095000E326813120003B08031DB82C3A08031D13
:10096000B82C3908031DB82C64303802031C352D0F
:10097000543023009A005B080319C02CDA30C12CD4
:10098000FA30D3000F30D400DB092100460A3F3093
:1009900003194706031DF32C0130C4070030C53D81
:1009A000DB30CD000F30CE00C430CF000030D0009F
:1009B0000130D1000030D2008D31DE258131FB3095
:1009C0002100CD000F30CE00C430CF000030D00069
:1009D0000130D1000030D2008D31DE25813121007F
:1009E000C601C701F72C0130C6070030C73D230000
:1009F00054082100CE00230053082100CD00C6304A
:100A0000CF000030D0000130D1000030D2008D3155
:100A1000DE258131210023082300D800210022088F
:100A20002300D700210021082300D6002100200840
:100A30002300342D210049080319352D48080319D6
:100A4000352D0130A8000030A900703023009A0035
:100A5000352D2100A801A90100302300D800003065
:100A6000D7000030D6000030D500210029082B0621
:100A7000031D3C2D28082A060319542D2803290498
:100A8000031D492D503023009A008831FC2081310C
:100A90004F2D443023009A008831D4208131210029
:100AA0002908AB002808AA0031080319502A330886
:100AB0003206031D502A05302100EB000F30EA00FA
:100AC000F130890B612DEA0B612DEB0B612D2100BB
:100AD00027082000B900210026082000B8008A312C
:100AE000192281312100B101502A2000A2002030BA
:100AF000FA007A08A30021003008031DB32D20005E
:100B00004A084B04031D962D55302206031D962DD1
:100B10002208FA004A08203E8600013087007A0841
:100B200081000130CA070030CB3D08004A034B0466
:100B3000031DAF2DAA302206031DAF2D2208FA0097
:100B40004A08203E8600013087007A088100013083
:100B5000CA070030CB3D2100B001B00A08002000D8
:100B6000CA01CB01080021003003031D080020004A
:100B70002208FA004A08203E8600013087007A08E1
:100B800081000130CA070030CB3D00304B020530F8
:100B900003194A02031C08002308023E86000130A4
:100BA00087000108023EFA00003003180130FB0004
:100BB0007B08803AFC0080307C02031DE12D293047
:100BC0007A02031CE82D2100B0012000CA01CB01EC
:100BD00020002308023E8600013087000108023E03
:100BE000FA00003003180130FB004B087B06031DA0
:100BF000FB2D4A087A06031D08002308023E8600E2
:100C0000013087000108FE3EF000FF30031800307D
:100C1000F1002308023E8A31C2228531710820008A
:100C2000A1007008A0002308023E86000130870062
:100C30000108203E860001308700403FFA00413F16
:100C4000FB0021087B06031D272E20087A06031DC2
:100C5000402E0230FA007A082100B000200023085C
:100C6000023E8600013087000108FC3E2100A400FE
:100C7000FF3003180030A5002000CA01CB01080096
:100C80002100B0012000CA01CB0108002100DE00D4
:100C90008831DA208631200039082100DD0020006B
:100CA00038082100DC00DD305E02031C5A2EDA0118
:100CB000DB01DE2E65305E020318622E5D08DB006C
:100CC0005C08DD2E5E08D400D501D409D509D40A0C
:100CD0000319D50A5408DC3EDF000030553DE00022
:100CE000E101E01BE1036108E2005C082000B800BC
:100CF00021005D082000B900BA01BB012100620893
:100D00002000BF00210061082000BE002100600813
:100D10002000BD0021005F082000BC008B318F2324
:100D2000863120003B082100E20020003A08210023
:100D3000E100200039082100E000200038082100EF
:100D4000DF000030D9000030D8000030D700783004
:100D5000D60059082000BB00210058082000BA0026
:100D6000210057082000B900210056082000B800D3
:100D7000210062082000BF00210061082000BE00A1
:100D8000210060082000BD0021005F082000BC0099
:100D90008C31F02420003B082100E20020003A08BA
:100DA0002100E100200039082100E000200038087F
:100DB0002100DF006008DB005F08DA005B08D30079
:100DC0005A08D200080000302100D7000030D600B9
:100DD0000030D5000030D40020003F083B02031D46
:100DE000FB2E3E083A02031DFB2E3D083902031D6F
:100DF000FB2E3C083802031C342F38082100CC009D
:100E0000200039082100CD0020003A082100CE0042
:100E100020003B082100CF0020003C092100D00029
:100E200020003D092100D10020003E092100D20010
:100E300020003F092100D300D00A0319D10A031969
:100E4000D20A0319D30A5008CC075108CD3D5208E5
:100E5000CE3D5308CF3D4F08D7004E08D6004D0871
:100E6000D5004C08D4006F2F200038082100CC009A
:100E7000200039082100CD0020003A082100CE00D2
:100E800020003B082100CF0020003C092100D000B9
:100E900020003D092100D10020003E092100D200A0
:100EA00020003F092100D300D00A0319D10A0319F9
:100EB000D20A0319D30A5008CC075108CD3D520875
:100EC000CE3D5308CF3DFF304C07D400FF304D3DA1
:100ED000D500FF304E3DD600FF304F3DD7005708BC
:100EE0002000BB00210056082000BA002100550850
:100EF0002000B900210054082000B800080020009C
:100F0000911DDF2F2400141E8C2F20004F08031981
:100F1000DD2FCE01CE0ADD2F151F8F2F1513141DC7
:100F2000B42F941A982F1108FD007D082000A4000A
:100F300020004E0803199F2FCE015308B12F5330C4
:100F40008A3177228731003A0319AE2F20005308E7
:100F5000240091002000CF01CF0ADB2F2000CF0119
:100F6000F53024009100DB2F941AC12F1108FD00E9
:100F70007D082000A400240015162000CD01CD0A14
:100F8000DD2F951FCB2F1108FD007D082000A40048
:100F900024009513DB2F20004D080319D62FCD0117
:100FA000240011088731FF278731DB2F2400110827
:100FB0008531752587312400151620009111921D69
:100FC000080024001108FD007D082000A4009211F3
:100FD0002400151608002000B9002A00111720006F
:100FE000380C2A00031C11120318111611082000D6
:100FF0003906FC3939062A009100911708000800CB
:10100000FF3FFF3FFF3FFF3FFF3FFF3FFF3FFF3FF0
:10101000FF3FFF3FFF3FFF3FFF3FFF3FFF3FFF3FE0
:10102000FF3FFF3FFF3FFF3FFF3FFF3FFF3FFF3FD0
:10103000FF3FFF3FFF3FFF3FFF3FFF3FFF3FFF3FC0
:10104000FF3FFF3FFF3FFF3FFF3FFF3FFF3FFF3FB0
:10105000FF3FFF3FFF3FFF3FFF3FFF3FFF3FFF3FA0
:10106000FF3FFF3FFF3FFF3FFF3FFF3FFF3FFF3F90
:10107000FF3FFF3FFF3FFF3FFF3FFF3FFF3FFF3F80
:10108000FF3FFF3FFF3FFF3FFF3FFF3FFF3FFF3F70
:10109000FF3FFF3FFF3FFF3FFF3FFF3FFF3FFF3F60
:1010A000FF3FFF3FFF3FFF3FFF3FFF3FFF3FFF3F50
:1010B000FF3FFF3FFF3FFF3FFF3FFF3FFF3FFF3F40
:1010C000FF3FFF3FFF3FFF3FFF3FFF3FFF3FFF3F30
:1010D000FF3FFF3FFF3FFF3FFF3FFF3FFF3FFF3F20
:1010E000FF3FFF3FFF3FFF3FFF3FFF3FFF3FFF3F10
:1010F000FF3FFF3FFF3FFF3FFF3FFF3FFF3FFF3F00
:10110000FF3FFF3FFF3FFF3FFF3FFF3FFF3FFF3FEF
:10111000FF3FFF3FFF3FFF3FFF3FFF3FFF3FFF3FDF
:10112000FF3FFF3FFF3FFF3FFF3FFF3FFF3FFF3FCF
:10113000FF3FFF3FFF3FFF3FFF3FFF3FFF3FFF3FBF
:10114000FF3FFF3FFF3FFF3FFF3FFF3FFF3FFF3FAF
:10115000FF3FFF3FFF3FFF3FFF3FFF3FFF3FFF3F9F
:10116000FF3FFF3FFF3FFF3FFF3FFF3FFF3FFF3F8F
:10117000FF3FFF3FFF3FFF3FFF3FFF3FFF3FFF3F7F
:10118000FF3FFF3FFF3FFF3FFF3FFF3FFF3FFF3F6F
:10119000FF3FFF3FFF3FFF3FFF3FFF3F00340F3464
:1011A0002000CE01CF0108002100AA01AB012200DE
:1011B0008C12080020004508B9004408B800080057
:1011C000640080010131890BE12800340310210003
:1011D0009D1C03140030093D0800031021009D1CD4
:1011E00003140030093D0800F00022009812181284
:1011F000700899009817080022008C160130210011
:10120000AA000030AB000800033021001C05F200EA
:101210007208F1001B08F00008005530230096000A
:10122000AA30960095140000000008000B1D1E292E
:1012300020004C0895000B11013008000030080018
:10124000C03025009E04CF309E050C309E04033034
:101250009E0408002000B8002200981218122000F6
:1012600038082200990098170800033021001C0557
:101270002000BA003A08B90021001B082000B8007D
:1012800008002000BC003C08BA00BB013A08BD00C1
:101290003B08BE003E08B9003D08B8000800143005
:1012A0003D00910023001E159F1522309B009C01DC
:1012B0001E129D179E1653309A000800D830200049
:1012C000BD000030BE0002302100DA005A082000C4
:1012D000BF00210056088D31552508008B132300CF
:1012E000151320003908230092002000380823003D
:1012F00091001516151589310D21230015118B1735
:101300000800F1007108F000F00DF00D21001D083B
:101310007006833970069D001D140630F0003030D1
:10132000890B9029F00B9029003221009D140800B0
:101330002000B90021009E178F309E052000380C38
:101340002100031C1E1103181E151E08200039065B
:10135000FC39390621009E000F309F059B019C013E
:1013600008002000BA002200981320003A08B900B3
:10137000B90DB90D2200180820003906F3393906D5
:10138000220098002000380C2200031C18100318BB
:10139000181408002000BA003808B900B90DB90DBA
:1013A0002200170820003906F33939062200970079
:1013B000170820003A06FC393A06220097009717D2
:1013C000171B0800E0292000B9003908B800B80D43
:1013D000B80D21001D082000380683393806210089
:1013E0009D001D1406302000B8003030890BF6290E
:1013F000B80BF629000021009D1408002000BE0053
:101400008831ED208931003A0319002A20003E0876
:101410008931E32189318831ED208931003A03197E
:101420000B2A8931352120003908BC003808BB005F
:10143000080020003908BB003808BA003B0DBB0C7F
:10144000BA0C3B0DBB0CBA0C3A082C0098002000DB
:1014500038080339BA000530BA35FF3E031D2C2A7F
:101460003A352C009700191299170800240094139C
:10147000141315121508F039063895009613161036
:10148000171797121712971117119710171020009E
:1014900038352400920021009115200091119211FD
:1014A0002100921524009516080020003803390405
:1014B000031D5E2A1C08FC390238612A1C08FC390D
:1014C00001389C0087309C051C1538033904031D26
:1014D000702AFA309B00E830C4000330C5000800D1
:1014E00064309B009030C4000130C5000800F1005A
:1014F00020004908803AF0004708803A7002031D36
:10150000832A460848020318982A20004808A03E6B
:101510008600013087000108F0007108860087010D
:10152000700881000130C8070030C93D0130080053
:101530000030080021009512151295112000380383
:101540003904031DAA2A21001508F839033895002B
:101550000630B52A023038063904031DBA2A2100A4
:101560001508F8390638950064302000BA003A08AA
:10157000CC00BF2A0730210095042000CC014C0884
:1015800095000800F500F601F701F801F901790866
:10159000803AF2007108803A7202031DD12A700865
:1015A00078020318E62A78087507F20072088600A8
:1015B000013087000108F300F4017308F60774088E
:1015C000F73D0130F8070030F93DC72A7708F100F0
:1015D0007608F00008002100CE00CC01CD01CF013B
:1015E000D0015008803A2000BA003908803A3A0207
:1015F000031DFD2A380821004F020318172B210074
:101600004F084E072000BA003A08860001308700D4
:101610000108BB00BC013B082100CC0720003C08AE
:101620002100CD3D0130CF070030D03DF12A21000F
:101630004D082000B90021004C082000B800080027
:101640002100E9006908863146268B3121005308C4
:10165000E8005208E7006908893141218B312000F8
:1016600039082100E600200038082100E50068085C
:101670002000B900210067082000B8008A31192233
:101680008B3107302100E4001730E3006A30890B0A
:10169000472BE30B472BE40B472B00002100650889
:1016A000E3006308B300330889312A2108002000D1
:1016B00039082300920020003808230091002100FF
:1016C000CC014C082000BE00BF013D083F02031DB5
:1016D0006B2B3C083E020318080023001513151459
:1016E0000000000021004C082000BE00BF01BE35F4
:1016F000BF0D3E083A0786003F083B3D87002300A8
:101700001308C03F1408C13F013091070030923DDB
:1017100001302000BE003E082100CC07612B0030C4
:101720002100CF000030CE000030CD000030CC00D2
:101730002000381CAA2B3C082100CC0720003D08C3
:101740002100CD3D20003E082100CE3D20003F0875
:101750002100CF3D01302000BC35BD0DBE0DBF0DB9
:10176000890BAB2B0130BB36BA0CB90CB80C890B0A
:10177000B32B3B083A0439043804031D982B21008D
:101780004F082000BB0021004E082000BA002100B5
:101790004D082000B90021004C082000B8000800C6
:1017A00073087204710470040319092CF901F90A11
:1017B000F31BE62B0130F035F10DF20DF30D890B23
:1017C000DB2B0130F8007808F907D82B7308770273
:1017D000031DF42B72087602031DF42B71087502A9
:1017E000031DF42B70087402031CFE2B7008F40216
:1017F0007108F53B7208F63B7308F73B0130F3368E
:10180000F20CF10CF00C890BFF2B0130F902031DD7
:10181000E62B7708F3007608F2007508F1007408EB
:10182000F00008002100991378309904FC309905E4
:101830001A1C182C0C148C140C1122000C112100F1
:101840000C168C1223008C010C150C1624008C0134
:1018500021000E148E140E118E150E168E122300FA
:101860008E018E1524008E012700910192019301B3
:10187000970198011716181699018B158B1677305A
:1018800028009700FA309600210092140B171030B0
:101890003C00A0001130A10010303D00A00011302C
:1018A000A1000E30A50008002100E5006508863182
:1018B00046268C3121005308E7005208E6006508EF
:1018C000893141218C31200039082100E9002000B4
:1018D00038082100E8003308E300E40169086402E5
:1018E000031D742C68086302031C932C67082000F6
:1018F000B900210066082000B8008A3119228C3115
:1019000007302100E4001730E3006A30890B862C91
:10191000E30B862CE40B862C000021006808E30012
:101920006308B20008006808E3006308B200B10170
:10193000B10A6708A7006608A60008000030FC008E
:101940000030FB000030FA000030F9007308720428
:10195000710470040319E72CFD01FD0AF31BBC2C74
:101960000130F035F10DF20DF30D890BB12C013082
:10197000F8007808FD07AE2C0130F935FA0DFB0DA3
:10198000FC0D890BBD2C73087702031DD12C720846
:101990007602031DD12C71087502031DD12C70082D
:1019A0007402031CDC2C7008F4027108F53B720809
:1019B000F63B7308F73B79140130F336F20CF10C67
:1019C000F00C890BDD2C0130FD02031DBC2C7C08C2
:1019D000F3007B08F2007A08F1007908F0000800B3
:1019E00000302100D0000030CF000030CE000030A9
:1019F000CD0020003B083A04390438040319442D73
:101A00002100D101D10A2000BB1B142D0130200080
:101A1000B835B90DBA0DBB0D890B072D013021006A
:101A2000CC004C08D107032D01302100CD35CE0D5F
:101A3000CF0DD00D890B152D20003B083F02031D53
:101A40002B2D3A083E02031D2B2D39083D02031DA4
:101A50002B2D38083C02031C372D3808BC023908EE
:101A6000BD3B3A08BE3B3B08BF3B21004D14013053
:101A70002000BB36BA0CB90CB80C890B382D0130DC
:101A80002100D102031D142D210050082000BB00AD
:101A900021004F082000BA0021004E082000B900A4
:101AA00021004D082000B80008002100D200A0301D
:101AB000D1005108D50020003F08043E2100D3008A
:101AC000003003180130D4000130540200300319F3
:101AD000530203180800550886000130870055306E
:101AE000C03FAA30C13F20003F08043E2100D10082
:101AF0005508023E860001308700510881005208D7
:101B0000D1005508033E860001308700510881004E
:101B100020003F080319A02D3D0884003E088500E1
:101B20003F082100D10051080319A02D0430A03E28
:101B300086000130870012001E002100D10B9B2D72
:101B400021005508023E8600013087000108FE3E54
:101B50002000B800FF3003180030B90021005508FC
:101B6000023E8A31EB228D31200039082100D40059
:101B7000200038082100D3005508023E86000130BD
:101B800087000108A03E8600013087005308C03F4F
:101B90005408C13F2000C801C90121005508023E78
:101BA0008600013087000108023E2000C600003098
:101BB00003180130C7008831D0200800E030210030
:101BC0004D05D5000F304E05D60056082000B9004F
:101BD000210055082000B8002030BA000230BB00B8
:101BE0002030BC000030BD008B3157238D312100E7
:101BF000D7015708D300D40152085402031D022E06
:101C0000510853020318202E5708D300D401D335AE
:101C1000D40D53084F0786005408503D87004D08E7
:101C20001F3957070907203E840002308500403FD6
:101C3000803F413F813F0130D3005308D707F92D42
:101C400056082000B900210055082000B80089314D
:101C50006E218D318B1323001513210056082300AC
:101C600092002100550823009100151295161515B4
:101C70002100D7011F3057020318592E5735203E37
:101C8000860002308700403F23009300413F9400CC
:101C900089310D218D310130230091070030923DB3
:101CA00001302100D3005308D7071F305702031C0F
:101CB0003E2E24005F082300940024005E082300C9
:101CC0009300951289310D210000000023001511A9
:101CD0008B170800200022088600870101352307A2
:101CE000A7002708860001308700403FA800413F39
:101CF000A9002808AA002908AB00AC01AD012408FE
:101D0000860087012A08810241312B08813B41313D
:101D10002C08813B41312D08813B7D312208860012
:101D2000870101352307A7002708860001308700B7
:101D30002008C03F2108C13F2008A7002108A800B3
:101D4000A901AA01240886008701270881074131DB
:101D50002808813D41312908813D41312A08813DD2
:101D60000130A70022088600870127088107220882
:101D7000860087010A300102031CC22E2208860059
:101D8000870181010030F3000030F2000030F100E3
:101D90000A30F000240886008701403FF400413FEC
:101DA000F500423FF600433FF7008C319E248E3110
:101DB00071082000AF007008AE0002302F02C8305A
:101DC00003192E02031CEA2E2508860087018101D3
:101DD000810A080001302F02753003192E02031802
:101DE000F72E2608860087018101810A080026084F
:101DF000860087018101250886008701810108008E
:101E0000FF3FFF3FFF3FFF3FFF3FFF3FFF3FFF3FE2
:101E1000FF3FFF3FFF3FFF3FFF3FFF3FFF3FFF3FD2
:101E2000FF3FFF3FFF3FFF3FFF3FFF3FFF3FFF3FC2
:101E3000FF3FFF3FFF3FFF3FFF3FFF3FFF3FFF3FB2
:101E4000FF3FFF3FFF3FFF3FFF3FFF3FFF3FFF3FA2
:101E5000FF3FFF3FFF3FFF3FFF3FFF3FFF3FFF3F92
:101E6000FF3FFF3FFF3FFF3FFF3FFF3FFF3FFF3F82
:101E7000FF3FFF3FFF3FFF3FFF3FFF3FFF3FFF3F72
:101E8000FF3FFF3FFF3FFF3FFF3FFF3FFF3FFF3F62
:101E9000FF3FFF3FFF3FFF3FFF3FFF3FFF3FFF3F52
:101EA000FF3FFF3FFF3FFF3FFF3FFF3FFF3FFF3F42
:101EB000FF3FFF3FFF3FFF3FFF3FFF3FFF3FFF3F32
:101EC000FF3FFF3FFF3FFF3FFF3FFF3FFF3FFF3F22
:101ED000FF3FFF3FFF3FFF3FFF3FFF3FFF3FFF3F12
:101EE000FF3FFF3FFF3FFF3FFF3FFF3FFF3FFF3F02
:101EF000FF3FFF3FFF3FFF3FFF3FFF3FFF3FFF3FF2
:101F0000FF3FFF3FFF3FFF3FFF3FFF3FFF3FFF3FE1
:101F1000FF3FFF3FFF3FFF3FFF3FFF3FFF3FFF3FD1
:101F2000FF3FFF3FFF3FFF3FFF3FFF3FFF3FFF3FC1
:101F3000FF3FFF3FFF3FFF3FFF3FFF3FFF3FFF3FB1
:101F4000FF3FFF3FFF3FFF3FFF3FFF3FFF3FFF3FA1
:101F5000FF3FFF3FFF3FFF3FFF3FFF3FFF3FFF3F91
:101F6000FF3FFF3FFF3FFF3FFF3FFF3FFF3FFF3F81
:101F7000FF3FFF3FFF3FFF3FFF3FFF3FFF3FFF3F71
:101F8000FF3FFF3FFF3FFF3FFF3FFF3FFF3FFF3F61
:101F9000FF3FFF3FFF3FFF3FFF3FFF3FFF3FFF3F51
:101FA000FF3FFF3FFF3FFF3FFF3FFF3FFF3FFF3F41
:101FB000FF3FFF3F09000000FF3FFF3FFF3FFF3FA4
:101FC000FF3FFF3FFF3FFF3FFF3FFF3FFF3FFF3F21
:101FD000FF3FFF3FFF3FFF3FFF3FFF3FFF3FFF3F11
:101FE000FF3FFF3FFF3FFF3FFF3FFF3FFF3FFF3F01
:101FF000FF3FFF3F0A000000FF3FFF3FFF3FFF3F63
:020000040001F9
:04000E00D439FF1FC3
:08000000FF3FFF3FFF3FFF3F00
:00000001FF
