:020000040000FA
:10000000000080314128FF3F803174082000A600A5
:100010007508A7007E08A8007F08A900B8308600F0
:10002000213087007508AA008B1A0B1D1B28873109
:100030009827803137280B1F37282100921D2A2846
:100040002000921D2A2821003B088A003A080A0055
:10005000803137282100911920009119232821008F
:10006000921C37282000921C37288731A9272000AE
:100070002A08FF002908FE002808F5002708F400D8
:10008000090020000308A0008031542820006508E2
:100090005B06031908005B08650203185128E50A8E
:1000A0005228E5036508EA2EF530EE002100E7301E
:1000B000D0000330D100E830D2000330D3005730F5
:1000C00084000030850017308731BD278031A03093
:1000D0008400003085002B308731BD2780312030EF
:1000E00084000130850048308731BD278031A03041
:1000F00084000130850040308731BD2780312030B9
:1001000084000230850040308731BD2780312000D7
:1001100080308600213087008D288C228031640059
:1001200021001A1C90286400C32380311F228031D3
:1001300005218031C22380310030302380311323E8
:1001400080318B170B176400C5258031AB208031BF
:10015000D7238031A328200067080319FB2801302A
:100160005A02283003195902031CFB280130580297
:10017000283003195702031CFB2821002008240201
:100180002000C20021002108253B2000C3002100DF
:100190002208263B2000C40021002308273B200022
:1001A000C5004508031DDD284408031DDD28103067
:1001B00042022730433B031C08006D08031DFB2847
:1001C0006C08031DFB286B08031DFB2890306A0296
:1001D0000318FB280130EA070030EB3DEC3DED3D14
:1001E00066080319F528A030F628803000278031F2
:1001F000B621FF30E60621002708A3002608A2004A
:100200002508A1002408A00008002000A030C20199
:10021000C301C401C501AB000F30AC006A30AD00B2
:100220000030AE000430AF008A2180318030AB0056
:100230000F30AC004230AD000030AE000430AF00F3
:100240008A2180316A0F47296B0A031D47296C0AEE
:10025000031D47296D0A031D4729420F4729430AF9
:10026000031D4729440A031D4729450A0319462946
:1002700047294508031D46294408031D462943080C
:10028000031D462991304202031C5429C82B6D08D6
:10029000031D39296C08031D39296B08031D3929F1
:1002A00091306A02031839296D08031D61296C0811
:1002B000031D61296B08031D612991306A02031C2B
:1002C00067290A278031A03000278031B6294508E8
:1002D000031D74294408031D74294308031D742950
:1002E00091304202031C7829803000278031B629E2
:1002F00045086D02031D862944086C02031D8629EA
:1003000043086B02031D862942086A02031808008D
:100310000A27080000308B1B0130B0008B13B1019D
:100320002F0831020318B0292C0823009200200066
:100330002B08230091001513151400000000200065
:100340002D0884002E08850023001308800020005B
:10035000AB0A0319AC0AAD0A0319AE0AB10A902917
:10036000300C031C8B1303188B170800FF30BF00E1
:100370000F30C0001F30BF063608BF053708C00564
:100380003608BE001F30BE05C1014108AB00AC01FC
:100390003F08AB074008AC3D042280314135203E88
:1003A0008400023085002B08803F2C08813F2030DC
:1003B000C10A4102031CC529C1013A0841020318C0
:1003C000FD2938088400390885000008FE00FF0177
:1003D0004108BB002030BB353B07BC003E353C0725
:1003E000BD008400023085007E08803F7F08813F89
:1003F000B80A0319B90AC10ADD294008AF003F084D
:10040000AE002030B0001B2E00308B1B0130AD0041
:100410008B132C082300920020002B08230091004E
:10042000151315140000000020002D0C13271408CC
:100430002000AC00230013082000AB0008002C2291
:1004400080318B302000AB000D30AC006B222400DB
:1004500017172400151608002400951A362A312A89
:10046000362A940126309504960195161030200006
:10047000AB002B35240092007F302000AB002B35E1
:100480002400930024302000AB000730AC006B2226
:10049000803100302000AB01AC017B228031B630CE
:1004A000AB000730AC0084228031C3302000AB00A9
:1004B0000730AC007C228031C8302000AB00073010
:1004C000AC007322803120000030AB01AC01D62398
:1004D0002100911508002C082100BB0020002B08EA
:1004E0002100BA0008002C082100B50020002B08CC
:1004F0002100B400080008002C082100B9002000E9
:100500002B082100B80008002C082100B7002000AB
:100510002B082100B6000800B4228031C7228031A8
:10052000BF2280310F238031B0228031AC22803154
:10053000A3228031BB228031FD228031F222803122
:10054000E2268031D02ED03021009E009F019B01F9
:100550009C0109309D00080088309800990108002E
:10056000883022009700080024009401263095046A
:10057000960195120800D2302A00910008007830C8
:10058000210099009A01980122009601080022009A
:100590008C018E01173021008C001B308E000C3036
:1005A00023008E0014308C0024008C018E01210069
:1005B000951725008C018E01373026008C003F30C6
:1005C0008E0027008C008E0010303D00A0001130FE
:1005D0003C00A1003D00A1000E30A50010303C0001
:1005E000A000080080302C009900F9309800C0303D
:1005F0009700CF3025009E050800E93028009600BE
:1006000095012000921021009214CD302000AB0003
:100610000730AC0020237F302800970008001A30F4
:1006200021009700080046302000AB000030AC00ED
:10063000282380316C302000AB000E30AC00202B22
:100640002C082100CE0020002B082100CD0008003E
:100650002C082100CC0020002B082100CB00080032
:10066000CF00652380314508CD004408CC004F08F9
:10067000CE004D08AC004C08AB004F238031073052
:100680002000CB001730CA006A30890B452BCA0BFB
:10069000452BCB0B452B000020004E08EA2E2C08E2
:1006A000FF002B08FE00FF36FE0CFF36FE0C7E0816
:1006B0002C00980020002B080339AD00AD0CAD0CC8
:1006C0002D0CC0392C0097000800C900A730490242
:1006D000031C6D2BC701C801982B4908031D752BFE
:1006E000E730C7000330C800982BA730B700B80127
:1006F000B901BA01C60049084602AB00AC01031CAF
:10070000AC030330AD01AE01B201B101B000E7307E
:10071000AF009D2380312E08BE002D08BD002C089F
:10072000BC002B08BB0091263808C8003708C7005A
:100730004808C5004708C4000800B301B401B5016A
:10074000B6012B1CAB2B2F08B3073008B43D310882
:10075000B53D3208B63DAF35B00DB10DB20DAE3678
:10076000AD0CAC0CAB0C2E082D042C042B04031D7B
:10077000A12B3608AE003508AD003408AC003308B4
:10078000AB00080008002000E70122008C120800DE
:100790002000A030EA01EB01EC01ED0100278031DF
:1007A000B6218031803000278031B6290800023020
:1007B00020005E06031D0800EC2C153020001927D0
:1007C00080312000BC003A30B4000030B500023067
:1007D000B6003C0816258031132D743020001927EF
:1007E00080312000BC003A30B4000030B500023047
:1007F000B6003C0816258031132D20006508192706
:1008000080312000BC003A30B4000030B500023026
:10081000B6003C0816258031132D21003308200036
:10082000BB00210032082000BA002200230820006B
:10083000BC003A30B4000030B5000230B6003C08CD
:1008400016258031132D20006708192780312000DC
:10085000BC003A30B4000030B5000230B6003C08AD
:1008600016258031132D24082000D0008030D101BE
:10087000D0070F30D13D220025082000D5000030E0
:10088000D60156022130031955020318132D5108C1
:10089000AC005008AB002530AD000130AE0055086B
:1008A000AF008A2180312430B4000130B5005508F2
:1008B000013EB6002200230816258031132D3B305F
:1008C0002000BA002B30BB00220023082000BC000F
:1008D0003A30B4000030B5000230B6003C081625AE
:1008E0008031132D200057085907BA0058085A3D87
:1008F000BB00220023082000BC003A30B4000030C6
:10090000B5000230B6003C0816258031132D1E2795
:10091000803120006408192780312000BC003A3063
:10092000B4000030B5000230B6003C081625803116
:10093000132D1E278031220024082000E3001927F0
:1009400080312000BC003A30B4000030B5000230E5
:10095000B6003C0816258031132D24086E25803101
:10096000220024082000192780312000BC003A30E2
:10097000B4000030B5000230B6003C0816258031C6
:10098000132D24082000D2008030D301D2070F306D
:10099000D33D22002208FB3E2000D4002130540227
:1009A0000318132D5308B7005208B6002530B800BD
:1009B0000130B9005408BA00B62180312200A500E8
:1009C00024302000B4000130B5000230B60022000F
:1009D000230816258031132D22002308013A03191C
:1009E000DD2B033A0319ED2B013A0319FD2B073ACE
:1009F00003190D2C013A0319232C033A0319332C44
:100A0000013A03195F2C0E3A0319722C033A0319A9
:100A1000872C8B3A0319992C023A0319AD2C053A0D
:100A20000319C12C132D2000DE0108002000B7009F
:100A300055302200A000AA30A10020003608043E54
:100A40002200A200200037082200A3002000350861
:100A5000AC003408AB003608AD002430AE014D25A3
:100A60008E31672680319E2574082000B8007508F5
:100A7000B9003608243E8400013085003808800023
:100A80003608253E8400390880003608063EE1001D
:100A9000E001DD012100BF010800B2002C08B00018
:100AA0002B08AF003208B3000130AD020030AE3B7E
:100AB0002D0F5D2D2E0A031908002F088400300821
:100AC00085000008B100AF0A0319B00A330884009A
:100AD0000130850031088000B30A542D2000CE007B
:100AE000652380314508CD004408CC004E08CF0076
:100AF0006502031C922D4D08AC004C08AB004F233F
:100B0000803107302000CB001730CA006A30890BD3
:100B1000872DCA0B872DCB0B872D000020004F0897
:100B2000DB0008004F08DB004D082100D100200049
:100B30004C082100D000BD01BD0A08004431FC3F33
:100B40000030FD3FFE3FFF3F7F3FFF007B3F7F02C6
:100B50000318BF2D7F3FFF007C3FFF077F08840005
:100B6000013085000008F4007D3F7407FD3FF4016B
:100B70007E3F743DFE3F7F3F013EFF3FA42D7D3F02
:100B8000F4007E3FF5007B31080020000E1ECB2DC7
:100B90002100BC01EB2D67080319DD2D5C0803194A
:100BA000D32D2100BC01200063080319EB2D210087
:100BB000520853040319C82DEB2D5C08031DEB2DBF
:100BC00063080319E82D2100520853040319EB2D83
:100BD0002100BC01BC0A21003C080319F22D152696
:100BE0008031F42DC323803121003D080319080012
:100BF000200065085B06031D080005302000AF00DB
:100C00000F30AE00F130890B032EAE0B032EAF0B6D
:100C1000032E210051082000AC00210050082000C4
:100C2000AB004F232100BD01080022008C162000DC
:100C3000E701E70A0800FF30B3000F30B4001F30AF
:100C4000B3062E08B3052F08B40500308B1B013006
:100C5000B20034082F06031D2F2E33082E06031D65
:100C6000FF348B132F08AC002E08AB0074268031A4
:100C70001513151595162000B5012F0823009200B5
:100C800020002E0823009100200035353007B100E8
:100C9000840002308500003F23009300013F940050
:100CA0001F3020003506031D572E230095125530A6
:100CB00023009600AA309600951400000000200042
:100CC000AE0A0319AF0A2030B50A3502031C3D2EC7
:100CD000230015112000320C1327150C2000B10041
:100CE000B10C310C0139080000308B1B0130AD0014
:100CF0008B132C082300920020002B082300910066
:100D000015131516151555309600AA309600951432
:100D1000000000002300151120002D0C13271508DA
:100D20000800BF01C001C101C2013A0839043804FA
:100D300037040319C72EC301C30ABA1BA42EB73543
:100D4000B80DB90DBA0D9C2EBF35C00DC10DC20D29
:100D50003A083E02031DB62E39083D02031DB62E89
:100D600038083C02031DB62E37083B02031CC12E77
:100D70003708BB023808BC3B3908BD3B3A08BE3BCC
:100D80003F14BA36B90CB80CB70CC30BA42E4208EA
:100D9000BA004108B9004008B8003F08B700080091
:100DA00021001508C03917389500B2302000950091
:100DB0002100CF000B118B16CE302000AB00073086
:100DC000AC00282BF93020009B009A0191100630CE
:100DD0009C0008004131FF3F7F3FF9267F3F200004
:100DE000E5002100FF30A801A901AA00AB007F3176
:100DF00008004131FF3F7F3F220099007F3108000A
:100E0000B6000F30B7006A30B8000030B9000430C7
:100E1000BA0008004508ED004408EC004308EB0068
:100E20004208EA000800031C8B1303188B172300E9
:100E30000800BA00BB01220023080800E8302100A6
:100E4000D2000330D30008002000911103102400C9
:100E5000941E03140030093D003A0319392F140C75
:100E6000890C0139003A0319372F0130422F023023
:100E7000422F140C890C0139003A0319412F033019
:100E8000422F04302000E800662F772787310310B7
:100E90002400141C03140030093D003A0319742F78
:100EA0008D278731742F77278731742F0310240003
:100EB000141C03140030093D4D2F2400140801397F
:100EC000003A0319742F82278731742F6808013A7A
:100ED0000319452F033A0319532F013A0319562FCB
:100EE000073A03195D2F742F2400151608002100FE
:100EF000340835040319080035088A0034080A004C
:100F0000873108002100380839040319080039081E
:100F10008A0038080A0087310800210036083704A3
:100F20000319080037088A0036080A0087310800CC
:100F30000B1121004F08200095009E2F21004B0827
:100F40004C04031908004C088A004B080A0087313A
:100F500008009210AB2F21004D084E040319080021
:100F60004E088A004D080A008731080020006908F1
:100F7000F000700824009100080064008001013135
:100F8000890BBE2F0034240011082100C100080085
:100F9000240011082100C000080008000800FF3FDD
:100FA000FF3FFF3FFF3FFF3FFF3FFF3FFF3FFF3F51
:100FB000FF3FFF3FFF3FFF3FFF3FFF3FFF3FFF3F41
:100FC000FF3FFF3FFF3FFF3FFF3FFF3FFF3FFF3F31
:100FD000FF3FFF3FFF3FFF3FFF3FFF3FFF3FFF3F21
:101B1000FF3FFF3FFF3F2000911DCF2D911124007B
:101B2000141E9A2D20005D080319CF2D2100BF013E
:101B3000BF0ACF2D151F9D2D1513141DB62D941EF4
:101B4000110821003F080319A72DBF01B12D6E30E8
:101B50003B268D31003A0319B02DDD01DD0AB12D90
:101B6000DD0120006E0824009100CF2D941ECB2DA6
:101B7000951FBD2D11089513CF2D20006208031964
:101B8000C62D240011082000E201CF2D24001108E9
:101B9000D8258D31CF2D11082000E201E20A200066
:101BA000921DD52D9211240011082400151608004D
:101BB0002000A5005E08031DF42D5F08031DE72D1E
:101BC00055302506031DE72D5626DF0A08005F0B5A
:101BD000F22DAA302506031DF22D5626DF0ADE015E
:101BE000DE0A0800DF0108005E0B080056268D3172
:101BF0000530DF0A5F02031C08005E268D310030CD
:101C00007F02293003197E02031C092E2000DE0109
:101C1000DF015E268D3120005F087E067F04031DF4
:101C20000800672685319E258D3174082000A100AB
:101C30007508A20022002208213E840001308500A0
:101C400000082000A300A40122002208203E8400F6
:101C500020002308F0000008A3007008A40022065A
:101C6000031D342E23082106031D392E0230DE0009
:101C7000F22DDE01F22DF000200061086002031851
:101C8000502E6008203E8400013085000008FF00CF
:101C90007008840085017F0880000130E00A080098
:101CA00070088400F5308501800000345F08203E14
:101CB00084000130850025088000080022002208E9
:101CC000023EFE00003003180130FF000800220031
:101CD0002208FE3E1E0022340130A4070030A53D3C
:101CE000A63DA73DB6268E3177268E31682F02306D
:101CF0000A278E317108AD007008AC002D08200055
:101D0000A20021002C082000A100C230A300A030B6
:101D1000A400C830A50028278E3122082100B30076
:101D2000200021082100B200200067080319B32E0B
:101D3000210029082D02031D9F2E28082C02031CB8
:101D4000A92E2D082B02031DA72E2C082A020318EA
:101D5000B32E20303E020318AF2EBE0A080020002A
:101D6000E401E40A08002100BE01080003300A274C
:101D70008E317108B1007008B00031082000A20057
:101D8000210030082000A100C630A3004830A40084
:101D9000CA30A50028278E312208DA002108D90090
:101DA00007300A278E317108AF007008AE002F0887
:101DB0002000A20021002E082000A100C430A300B2
:101DC000C030A400C930A50028278E312208D800D1
:101DD0002108D70002305A02C830031959020318EB
:101DE000F82E02305802C83003195702031CFB2E8C
:101DF000DC01DC0A080001305A027530031959026F
:101E00000318080001305802753003195702031CEB
:101E1000DC010800F300F200F20DF20D21001D08B4
:101E20007206833972069D001D14A030890B162F8F
:101E300021009D141A30890B1B2F003221001C0831
:101E40000339F100F0011B08F0070318F10A08003C
:101E500076278E31003FFE00013FFF0023088400FB
:101E600085017E08800201317F08803B3F312308D5
:101E7000840085012108800701312208803D3F311F
:101E800076278E312108803F2208813F2508840073
:101E900010308501800A0002031C512F25088400A0
:101EA0008001230884008501003FFE00013FFF0000
:101EB0007E08083EFE0000307F3DFF007E0E0F3999
:101EC000A1007F0EF039A1047F0E0F39A200080097
:101ED0002000630803190800210052085304031965
:101EE00008000130D2020030D33B080025088400EE
:101EF000850100352407F0008400013085000800CA
:101F00000000000000000000FF3FFF3FFF3FFF3FD9
:101F1000FF3FFF3FFF3FFF3FFF3FFF3FFF3FFF3FD1
:101F2000FF3FFF3FFF3FFF3FFF3FFF3FFF3FFF3FC1
:101F3000FF3FFF3FFF3FFF3FFF3FFF3FFF3FFF3FB1
:101F40000000000000000000FF3FFF3FFF3FFF3F99
:101F5000FF3FFF3FFF3FFF3FFF3FFF3FFF3FFF3F91
:101F6000FF3FFF3FFF3FFF3FFF3FFF3FFF3FFF3F81
:101F7000FF3FFF3FFF3FFF3FFF3FFF3FFF3FFF3F71
:101F8000FF3FFF3FFF3FFF3FFF3FFF3FFF3FFF3F61
:101F9000FF3FFF3FFF3FFF3FFF3FFF3FFF3FFF3F51
:101FA000FF3FFF3FFF3FFF3FFF3FFF3FFF3FFF3F41
:101FB000FF3FFF3FFF3FFF3FFF3FFF3FFF3FFF3F31
:101FC000FF3FFF3FFF3FFF3FFF3FFF3FFF3FFF3F21
:101FD000FF3FFF3FFF3FFF3FFF3FFF3FFF3FFF3F11
:101FE000FF3FFF3FFF3FFF3FFF3FFF3FFF3FFF3F01
:101FF000FF3FFF3FFF3FFF3FFF3FFF3FFF3FFF3FF1
:020000040001F9
:04000E00D439FF1EC4
:08000000FF3FFF3FFF3FFF3F00
:00000001FF
