:020000040000FA
:10000000000080315128FF3F803174082000A60095
:100010007508A7007608A8007708A9007C08AA0040
:100020007D08AB007E08AC007F08AD00B8308600CC
:10003000213087007508AE008B1A0B1D23288731ED
:100040009A2780313F280B1F3F282100921D32281C
:100050002000921D322821003B088A003A080A003D
:1000600080313F2821009119200091192B2821006F
:10007000921C3F282000921C3F288731AB2720008C
:100080002E08FF002D08FE002C08FD002B08FC00A8
:100090002A08F7002908F6002808F5002708F400C8
:1000A000090020000308A0008031642820006608B1
:1000B0005F06031908005F08660203186128E60A54
:1000C0006228E6036608122FF530EF002100E730C2
:1000D000D3000330D400E830D5000330D6005B30C5
:1000E00084000030850014308731BF278031A03074
:1000F0008400003085002E308731BF2780312030CA
:1001000084000130850048308731BF278031A0301E
:1001100084000130850040308731BF278031203096
:1001200084000230850040308731BF2780312000B5
:1001300080308600213087009D289C228031640019
:1001400021001A1CA0286400D32380312F22803183
:1001500015218031D2238031003040238031232388
:1001600080318B170B176400C6258031BB2080318E
:10017000E7238031B3282000680803190B290130D8
:100180005E02283003195D02031C0B2901305C025A
:10019000283003195B02031C0B29210020082402CC
:1001A0002000C60021002108253B2000C7002100B7
:1001B0002208263B2000C80021002308273B2000FE
:1001C000C9004908031DED284808031DED2810301B
:1001D00046022730473B031C08006E08031D0B290D
:1001E0006D08031D0B296C08031D0B2990306B0251
:1001F00003180B290130EB070030EC3DED3DEE3DDF
:10020000670803190529A030062980307627803138
:10021000C621FF30E70621002708A3002608A20018
:100220002508A1002408A00008002000A030C60175
:10023000C701C801C901AF000F30B0006B30B10079
:100240000030B2000430B3009A2180318030AF001A
:100250000F30B0004630B1000030B2000430B300BF
:100260009A2180316B0F57296C0A031D57296D0A9B
:10027000031D57296E0A031D5729460F5729470AA0
:10028000031D5729480A031D5729490A03195629EE
:1002900057294908031D56294808031D56294708B0
:1002A000031D562991304602031C6429D82B6E0881
:1002B000031D49296D08031D49296C08031D49299F
:1002C00091306B02031849296E08031D71296D08CE
:1002D000031D71296C08031D712991306B02031CE9
:1002E000772980278031A03076278031C6294908B8
:1002F000031D84294808031D84294708031D8429F8
:1003000091304602031C8829803076278031C62927
:1003100049086E02031D962948086D02031D96299F
:1003200047086C02031D962946086B020318080053
:100330008027080000308B1B0130B4008B13B501FF
:10034000330835020318C02930082300920020002A
:100350002F08230091001513151400000000200041
:100360003108840032088500230013088000200033
:10037000AF0A0319B00AB10A0319B20AB50AA029D3
:10038000340C031C8B1303188B170800FF30C300B9
:100390000F30C4001F30C3063A08C3053B08C4052C
:1003A0003A08C2001F30C205C5014508AF00B001C0
:1003B0004308AF074408B03D142280314535203E44
:1003C0008400023085002F08803F3008813F2030B4
:1003D000C50A4502031CD529C5013E08450203187C
:1003E0000D2A3C0884003D0885000008FE00FF013E
:1003F0004508BF002030BF353F07C00042354007E9
:10040000C1008400023085007E08803F7F08813F64
:10041000BC0A0319BD0AC50AED294408B300430804
:10042000B2002030B4001C2E00308B1B0130B10014
:100430008B1330082300920020002F082300910026
:1004400015131514000000002000310C8E2714082D
:100450002000B000230013082000AF0008003C2259
:10046000803120302000AF000C30B0007B2224000F
:1004700017172400151608002400951A462A412A49
:10048000462A9401263095049601951610302000D6
:10049000AF002F35240092007F302000AF002F35B1
:1004A0002400930013302000AF000B30B0007B22FB
:1004B000803100302000AF01B0018B228031B83094
:1004C000AF000730B00094228031C5302000AF006B
:1004D0000730B0008C228031CA302000AF000730D6
:1004E000B0008322803120000030AF01B001E6234C
:1004F00021009115080030082100BB0020002F08C2
:100500002100BA00080030082100B50020002F08A3
:100510002100B4000800080030082100B9002000C4
:100520002F082100B800080030082100B700200083
:100530002F082100B6000800C4228031D722803164
:10054000CF2280311F238031C0228031BC228031F4
:10055000B3228031CB2280310D23803102238031C0
:100560000A278031F82ED03021009E009F019B0188
:100570009C0109309D00080088309800990108000E
:10058000883022009700080024009401263095044A
:10059000960195120800D2302A00910008007830A8
:1005A000210099009A01980122009601080022007A
:1005B0008C018E01173021008C001B308E000C3016
:1005C00023008E0014308C0024008C018E01210049
:1005D000951725008C018E01373026008C003F30A6
:1005E0008E0027008C008E0010303D00A0001130DE
:1005F0003C00A1003D00A1000E30A50010303C00E1
:10060000A000080080302C009900F9309800C0301C
:100610009700CF3025009E050800E930280096009D
:1006200095012000921021009214CF302000AF00DD
:100630000730B00030237F302800970008001A30C0
:1006400021009700080056302000AF000030B000B5
:100650003823803102302000AF000D30B000302B45
:1006600030082100D10020002F082100D000080010
:1006700030082100CF0020002F082100CE00080004
:10068000D300752380314908D1004808D0005308B1
:10069000D2005108B0005008AF005F23803107300E
:1006A0002000CF001730CE006A30890B552BCE0BBF
:1006B000552BCF0B552B000020005208122F30086D
:1006C000FF002F08FE00FF36FE0CFF36FE0C7E08F2
:1006D0002C00980020002F080339B100B10CB10C98
:1006E000310CC0392C0097000800CD00A7304D0216
:1006F000031C7D2BCB01CC01A82B4D08031D852BA2
:10070000E730CB000330CC00A82BA730BB00BC01E6
:10071000BD01BE01CA004D084A02AF00B001031C72
:10072000B0030330B101B201B601B501B400E73046
:10073000B300AD2380313208C2003108C100300857
:10074000C0002F08BF00B9263C08CC003B08CB00F6
:100750004C08C9004B08C8000800B701B801B9012E
:10076000BA012F1CBB2B3308B7073408B83D350836
:10077000B93D3608BA3DB335B40DB50DB60DB23638
:10078000B10CB00CAF0C3208310430042F04031D3F
:10079000B12B3A08B2003908B1003808B000370868
:1007A000AF00080008002000E80122008C120800B9
:1007B0002000A030EB01EC01ED01EE017627803145
:1007C000C6218031803076278031C629080002306A
:1007D00020006106031D08000F2D17302000892717
:1007E00080312000C0003E30B8000030B900023037
:1007F000BA0040083C258031392D76302000892709
:1008000080312000C0003E30B8000030B900023016
:10081000BA0040083C258031392D20006608892720
:1008200080312000C0003E30B8000030B9000230F6
:10083000BA0040083C258031392D210033082000C2
:10084000BF00210032082000BE0022002308200043
:10085000C0003E30B8000030B9000230BA00400895
:100860003C258031392D20006808892780312000FF
:10087000C0003E30B8000030B9000230BA00400875
:100880003C258031392D24082000D4008030D5014A
:10089000D4070F30D53D220025082000D9000030B4
:1008A000DA015A022130031959020318392D55086B
:1008B000B0005408AF002530B1000130B200590833
:1008C000B3009A2180312430B8000130B9005908B2
:1008D000013EBA00220023083C258031392D8930A1
:1008E0002000BE002B30BF00220023082000C000E3
:1008F0003E30B8000030B9000230BA0040083C2554
:100900008031392D20005B085D07BE005C085E3D2C
:10091000BF00220023082000C0003E30B800003095
:10092000B9000230BA0040083C258031392D9427A7
:10093000803120006508892780312000C0003E30CA
:10094000B8000030B9000230BA0040083C258031C0
:10095000392D94278031220024082000E4008927C3
:1009600080312000C0003E30B8000030B9000230B5
:10097000BA0040083C258031392D24089625803165
:10098000220024082000892780312000C0003E304A
:10099000B8000030B9000230BA0040083C25803170
:1009A000392D24082000D6008030D701D6070F301B
:1009B000D73D22002208FB3E2000D80021305802FB
:1009C0000318392D5708BB005608BA002530BC0063
:1009D0000130BD005808BE00C62180312200A500AC
:1009E00024302000B8000130B9000230BA002200E3
:1009F00023083C258031392D2100C2012000E5016A
:100A00006508892780312000C0003E30B8000030E2
:100A1000B9000230BA0040083C258031392D22004F
:100A20002308013A0319ED2B033A0319FD2B013A70
:100A300003190D2C073A03191D2C013A0319332C05
:100A4000033A0319432C013A03196F2C0E3A031988
:100A5000822C033A0319972C8B3A0319A92C023ADA
:100A60000319BD2C053A0319D12C0C3A0319FC2C9F
:100A7000392D2000E10108002000BB005530220084
:100A8000A000AA30A10020003A08043E2200A200E3
:100A900020003B082200A30020003908B0003808DD
:100AA000AF003A08B1002430B20175258C31FD2425
:100AB0008031922674082000BC007508BD003A08F9
:100AC000243E8400013085003C0880003A08253E21
:100AD00084003D0880003A08063E2100C000200046
:100AE000E3012100BF01BE010800B3003008B600D9
:100AF0002F08B5003308B7000130B1020030B23B17
:100B0000310F852D320A0319080035088400360894
:100B100085000008B400B50A0319B60A3708840036
:100B20000130850034088000B70A7C2D2000D000F9
:100B3000752380314908D2004808D1005008D300FD
:100B40006602031CBA2D5208B0005108AF005F23A3
:100B5000803107302000CF001730CE006A30890B7B
:100B6000AF2DCE0BAF2DCF0BAF2D000020005308C3
:100B7000DF0008005308DF0052082100D4002000E5
:100B800051082100D300BD01BD0A080020000E1E3F
:100B9000CC2D2100BC01EC2D68080319DE2D600866
:100BA0000319D42D2100BC01200064080319EC2D89
:100BB0002100550856040319C92DEC2D6008031DAA
:100BC000EC2D64080319E92D21005508560403197A
:100BD000EC2D2100BC01BC0A21003C080319F32DB7
:100BE00016268031F52DD323803121003D080319CD
:100BF0000800200066085F06031D0800053020007D
:100C0000B3000F30B200F130890B042EB20B042E6A
:100C1000B30B042E210054082000B000210053081B
:100C20002000AF005F232100BD01080022008C16C8
:100C30002000E801E80A0800FF30B7000F30B800D4
:100C40001F30B7063208B7053308B80500308B1BD4
:100C50000130B60038083306031D302E370832063F
:100C6000031DFF348B133308B0003208AF00752624
:100C700080311513151595162000B901330823008E
:100C800092002000320823009100200039353407FB
:100C9000B500840002308500003F23009300013F2F
:100CA00094001F3020003906031D582E2300951292
:100CB000553023009600AA309600951400000000DD
:100CC0002000B20A0319B30A2030B90A3902031C02
:100CD0003E2E230015112000360C8E27150C200007
:100CE000B500B50C350C0139080000308B1B013004
:100CF000B1008B1330082300920020002F0823003E
:100D0000910015131516151555309600AA3096004A
:100D1000951400000000230015112000310C8E27CF
:100D2000150808004431FC3F0030FD3FFE3FFF3F07
:100D30007F3FFF007B3F7F020318B32E7F3FFF0002
:100D40007C3FFF077F088400013085000008F40025
:100D50007D3F7407FD3FF4017E3F743DFE3F7F3FC2
:100D6000013EFF3F982E7D3FF4007E3FF5007B3132
:100D70000800C401C501C601C7013E083D043C048A
:100D80003B040319EF2EC301C30ABE1BCC2EBB3597
:100D9000BC0DBD0DBE0DC42EC435C50DC60DC70D91
:100DA0003E084202031DDE2E3D084102031DDE2ED9
:100DB0003C084002031DDE2E3B083F02031CE92EC7
:100DC0003B08BF023C08C03B3D08C13B3E08C23B5C
:100DD0004414BE36BD0CBC0CBB0CC30BCC2E470858
:100DE000BE004608BD004508BC004408BB00080022
:100DF00021001508C03917389500B2302000950041
:100E00002100D2000B118B16D0302000AF0007302C
:100E1000B000382BF93020009B009A019110063069
:100E20009C0008004131FF3F7F3F6F277F3F20003C
:100E3000E6000430FF006608843CFE00031CFF034C
:100E40001E007F081E008E311626803174081E0099
:100E500075081E0076081E0089301E0029301E000D
:100E60003F301E008E313F26803174081E00750809
:100E70001E0076081E008B31872380317508210003
:100E8000A9007408A8000430FF0020006608843C14
:100E9000FE00031CFF031E007F081E008E31162675
:100EA000803174081E0075081E0076081E004D3043
:100EB0001E007E301E003F301E008E313F268031E6
:100EC00074081E0075081E0076081E008B318723EB
:100ED00075082100AB007408AA007F310800413179
:100EE000FF3F7F3F220099007F310800BA000F309A
:100EF000BB006B30BC000030BD000430BE000800F9
:100F00004908EE004808ED004708EC004608EB00F1
:100F10000800BE00BF01220023080800031C8B1339
:100F200003188B1723000800E8302100D500033098
:100F3000D60008000B112100520820009500A02FB8
:100F400021004E084F04031908004F088A004E087C
:100F50000A00873108009210AD2F2100500851047B
:100F60000319080051088A0050080A008731080058
:100F700020006A08F0007008240091000800640056
:100F800080010131890BC02F003424001108210099
:100F9000C4000800240011082100C3000800080054
:100FA0000800FF3FFF3FFF3FFF3FFF3FFF3FFF3F87
:100FB000FF3FFF3FFF3FFF3FFF3FFF3FFF3FFF3F41
:100FC000FF3FFF3FFF3FFF3FFF3FFF3FFF3FFF3F31
:100FD000FF3FFF3FFF3FFF3FFF3FFF3FFF3FFF3F21
:100FE000FF3FFF3FFF3FFF3FFF3FFF3FFF3FFF3F11
:10162000FF3FFF3FFF3F2000911103102400941E55
:1016300003140030093D003A0319282B140C890CBF
:101640000139003A0319262B0130312B0230312B9E
:10165000140C890C0139003A0319302B0330312B5B
:1016600004302000E900552B66238B310310240041
:10167000141C03140030093D003A0319632B7C232A
:101680008B31632B66238B31632B03102400141CD6
:1016900003140030093D3C2B240014080139003AA2
:1016A0000319632B71238B31632B6908013A0319EA
:1016B000342B033A0319422B013A0319452B073AFD
:1016C00003194C2B632B2400151608002100340845
:1016D00035040319080035088A0034080A008B31E4
:1016E00008002100380839040319080039088A0065
:1016F00038080A008B310800210036083704031926
:10170000080037088A0036080A008B310800463185
:10171000773FFD00783FFE00793FFF0003107E0D0C
:101720007F0DFE3F8908031D9A2BF401F501F60198
:10173000F7011E2C773FFD00783FFE00793FFF0048
:101740001730FF36FE0CFD0C890BA12B7D08FF3FE7
:10175000783F8917F83F0030F93F773FFC00783F2A
:10176000FD00793FFE00FF017C08FA3F7D08FB3F4A
:101770007E08FC3F7F08FD3F7E3FF4008E30740200
:10178000FE3F7E3F803A803E0318DD2B7E3F803A4D
:101790008F3E031C952B7D3F8936FD3F7C3F890C96
:1017A000FC3F7B3F890CFB3F7A3F890CFA3F7E3F31
:1017B000013EFE3F0319F82BCB2B7E3FFF00183074
:1017C0007F020318952B7E3F0319F82B060884002F
:1017D000070885003A3180350131800D0131800DD7
:1017E0000131800D7E3FF40001307402FE3FE32B97
:1017F0007F3F0319162C7A3FFC007B3FFD007C3FA6
:10180000FE007D3FFF00FC09FD09FE09FF09FC0AFF
:101810000319FD0A0319FE0A0319FF0A7C08FA3F9F
:101820007D08FB3F7E08FC3F7F08FD3F7A3FF400C8
:101830007B3FF5007C3FF6007D3FF70077310800E5
:101840002000911D652C91112400141E2E2C2100C6
:101850003F080319652CBE01BE0A652C151F312CEB
:101860001513141D4C2C941E110821003E08031959
:101870003B2CBE01472C6F30D1248C31003A031928
:10188000452C2100BF01BF0A472C2100BF012000C9
:101890006F0824009100652C941E612C951F532C19
:1018A00011089513652C2100410803195C2C2400B4
:1018B00011082100C101652C240011086E248C310F
:1018C000652C11082100C101C10A2000921D6B2C5A
:1018D0009211240011082400151608002000A5000C
:1018E0006108031D8A2C6208031D7D2C55302506D6
:1018F000031D7D2CEC24E20A0800620B882CAA3020
:101900002506031D882CEC24E20AE101E10A080007
:10191000E2010800610B0800EC248C310530E20A7A
:101920006202031C0800F4248C3100307F0229304D
:1019300003197E02031C9F2C2000E101E201F42424
:101940008C31200062087E067F04031D0800FD2400
:10195000863192268C3174082000A1007508A200FF
:1019600022002208213E840001308500000820006A
:10197000A300A40122002208203E840020002308A6
:10198000F0000008A3007008A4002206031DCA2C62
:1019900023082106031DCF2C0230E100882CE10131
:1019A000882CF0004008200063020318E62C63082E
:1019B000203E8400013085000008FF00700884008C
:1019C00085017F0880000130E30A08007008840068
:1019D000F5308501800000346208203E840001302B
:1019E000850025088000080022002208023EFE0033
:1019F000003003180130FF00080022002208FE3EDC
:101A00001E0022340130A4070030A53DA63DA73DAD
:101A10004C258D310D258D31FE2D0230A0258D31C7
:101A20007108AD007008AC002D082000A200210054
:101A30002C082000A100C530A300A030A400CB30AA
:101A4000A500BE258D3122082100B3002000210809
:101A50002100B200200068080319492D210029083F
:101A60002D02031D352D28082C02031C3F2D2D08A7
:101A70002B02031D3D2D2C082A020318492D1E3070
:101A800042020318452DC20A08002000E501E50ABC
:101A900008002100C20108000330A0258D31710823
:101AA000B1007008B00031082000A2002100300809
:101AB0002000A100C930A3004830A400CD30A5000B
:101AC000BE258D312208DE002108DD000730A0256B
:101AD0008D317108AF007008AE002F082000A20001
:101AE00021002E082000A100C730A300C030A400B0
:101AF000CC30A500BE258D312208DC002108DB009A
:101B000002305E02C83003195D0203188E2D0230C8
:101B10005C02C83003195B02031C912DE001E00A4E
:101B2000080001305E02753003195D0203180800D9
:101B300001305C02753003195B02031CE0010800F0
:101B4000F300F200F20DF20D21001D087206833938
:101B500072069D001D14A030890BAC2D21009D1430
:101B60001A30890BB12D003221001C080339F10015
:101B7000F0011B08F0070318F10A08000C268D314C
:101B8000003FFE00013FFF002308840085017E081E
:101B9000800201317F08803B3F31230884008501AA
:101BA0002108800701312208803D3F310C268D310C
:101BB0002108803F2208813F2508840010308501DC
:101BC000800A0002031CE72D2508840080012308F9
:101BD00084008501003FFE00013FFF007E08083EB3
:101BE000FE0000307F3DFF007E0E0F39A1007F0E0A
:101BF000F039A1047F0E0F39A2000800200064080C
:101C00000319080021005508560403190800013083
:101C1000D5020030D63B0800250884008501003538
:101C20002407F000840001308500080000304131B5
:101C3000FF3F7E3F891F292E7E3FF400F4097D3F40
:101C40008909890A0319F40AFD3F7408FE3F01302F
:101C5000FF3F7F3F1E008E301E007B3FFE007C3F1B
:101C6000FF007E08FD007F08FE00FF017D081E00CA
:101C70007E081E007F081E00E7267D3108004631E1
:101C8000773FFD00783FFE00793FFF0003107E0D97
:101C90007F0DFF3F890803195A2E743FFD00753FE1
:101CA000FE00763FFF0003107E0D7F0DFD3F89088B
:101CB000031D5E2EF401F501F601E52E7D3FFF00C8
:101CC0007B30FF077F3F7F07FF3F793FFD3FF630C7
:101CD00006078400FF30073D85007D3FF4000006C5
:101CE000FD3F7D3F8039FD3F783F8917F83F753FC5
:101CF0008917F53F0030F63FFA3FFB3FFC3F0730C6
:101D0000FE3F773F091C932E7A3FF400743F74071F
:101D1000FA3F7B3FF400753F743DFB3F7C3FF4008E
:101D2000763F743DFC3F793F8936F93F783F890C17
:101D3000F83F773F890CF73F0608840007088500C5
:101D4000343180350131800D0131800D7E3FF4004A
:101D500001307402FE3F031D812E0930FE3F773FA4
:101D6000091CC12E7A3FF400743F7407FA3F7B3F91
:101D7000F400753F743DFB3F7C3FF400763F743DBB
:101D8000FC3F793F8936F93F783F890CF83F773F30
:101D9000890CF73F7C3F8936FC3F7B3F890CFB3F3A
:101DA0007A3F890CFA3F7E3FF40001307402FE3F17
:101DB000031DAF2E7D3F1E007E3F1E00783F1E009C
:101DC000783F1E00783F1E00E726743108007C3FF4
:101DD0000319F22E7F3FF4007E3FF4047D3FF404AC
:101DE000031D022FF401F501F6017E2F7C3F013E19
:101DF000FC3F7F3F8936FF3F7E3F890CFE3F7D3FA2
:101E0000890CFD3F7D3FFD007E3FFE007F3FFF00D0
:101E1000FE390319242FF62E7C3F013EFC3F0608B5
:101E200084000708850001303D3180070030013112
:101E3000803D0131803D7F3F8936FF3F7E3F890CE9
:101E4000FE3F7D3F890CFD3F7D3FFD007E3FFE0054
:101E50007F3FFF00FF390319432F0C2F7C3FFF000A
:101E600002307F02031C462F7C3FF40001307402D5
:101E7000FC3F06088400070885003D3180350131AC
:101E8000800D0131800D7E3F891F2E2F7C3F091868
:101E9000582FFF30FD007F30FE00FF30FF007D3FF8
:101EA0007D05FD3F7E3F7E05FE3F7F3F7F05FF3F77
:101EB0007C3F8936FC3F7C3FFF00FE01FD017D3FFA
:101EC0007D04FD3F7E3F7E04FE3F7F3F7F04FF3F5A
:101ED0007B3F0319782F8030FD01FE01FF007D3F1D
:101EE0007D04FD3F7E3F7E04FE3F7F3F7F04FF3F3A
:101EF0007D3FF4007E3FF5007F3FF6007B31080018
:101F00000900000000000000FF3FFF3FFF3FFF3FD0
:101F1000FF3FFF3FFF3FFF3FFF3FFF3FFF3FFF3FD1
:101F2000FF3FFF3FFF3FFF3FFF3FFF3FFF3FFF3FC1
:101F3000FF3FFF3FFF3FFF3FFF3FFF3FFF3FFF3FB1
:101F40000700000000000000FF3FFF3FFF3FFF3F92
:101F5000FF3FFF3FFF3FFF3FFF3FFF3FFF3FFF3F91
:101F6000FF3FFF3FFF3FFF3FFF3FFF3FFF3FFF3F81
:101F7000FF3FFF3FFF3FFF3FFF3FFF3FFF3FFF3F71
:101F8000FF3FFF3FFF3FFF3FFF3FFF3FFF3FFF3F61
:101F9000FF3FFF3FFF3FFF3FFF3FFF3FFF3FFF3F51
:101FA000FF3FFF3FFF3FFF3FFF3FFF3FFF3FFF3F41
:101FB000FF3FFF3FFF3FFF3FFF3FFF3FFF3FFF3F31
:101FC000FF3FFF3FFF3FFF3FFF3FFF3FFF3FFF3F21
:101FD000FF3FFF3FFF3FFF3FFF3FFF3FFF3FFF3F11
:101FE000FF3FFF3FFF3FFF3FFF3FFF3FFF3FFF3F01
:101FF000FF3FFF3FFF3FFF3FFF3FFF3FFF3FFF3FF1
:020000040001F9
:04000E00D439FF1EC4
:08000000FF3FFF3FFF3FFF3F00
:00000001FF
